{
  "contractName": "FantomAuction",
  "abi": [
    {
      "anonymous": false,
      "inputs": [
        {
          "indexed": true,
          "internalType": "address",
          "name": "nftAddress",
          "type": "address"
        },
        {
          "indexed": true,
          "internalType": "uint256",
          "name": "tokenId",
          "type": "uint256"
        }
      ],
      "name": "AuctionCancelled",
      "type": "event"
    },
    {
      "anonymous": false,
      "inputs": [
        {
          "indexed": true,
          "internalType": "address",
          "name": "nftAddress",
          "type": "address"
        },
        {
          "indexed": true,
          "internalType": "uint256",
          "name": "tokenId",
          "type": "uint256"
        },
        {
          "indexed": false,
          "internalType": "address",
          "name": "payToken",
          "type": "address"
        }
      ],
      "name": "AuctionCreated",
      "type": "event"
    },
    {
      "anonymous": false,
      "inputs": [
        {
          "indexed": false,
          "internalType": "address",
          "name": "oldOwner",
          "type": "address"
        },
        {
          "indexed": true,
          "internalType": "address",
          "name": "nftAddress",
          "type": "address"
        },
        {
          "indexed": true,
          "internalType": "uint256",
          "name": "tokenId",
          "type": "uint256"
        },
        {
          "indexed": true,
          "internalType": "address",
          "name": "winner",
          "type": "address"
        },
        {
          "indexed": false,
          "internalType": "address",
          "name": "payToken",
          "type": "address"
        },
        {
          "indexed": false,
          "internalType": "int256",
          "name": "unitPrice",
          "type": "int256"
        },
        {
          "indexed": false,
          "internalType": "uint256",
          "name": "winningBid",
          "type": "uint256"
        }
      ],
      "name": "AuctionResulted",
      "type": "event"
    },
    {
      "anonymous": false,
      "inputs": [
        {
          "indexed": true,
          "internalType": "address",
          "name": "nftAddress",
          "type": "address"
        },
        {
          "indexed": true,
          "internalType": "uint256",
          "name": "tokenId",
          "type": "uint256"
        },
        {
          "indexed": true,
          "internalType": "address",
          "name": "bidder",
          "type": "address"
        },
        {
          "indexed": false,
          "internalType": "uint256",
          "name": "bid",
          "type": "uint256"
        }
      ],
      "name": "BidPlaced",
      "type": "event"
    },
    {
      "anonymous": false,
      "inputs": [
        {
          "indexed": true,
          "internalType": "address",
          "name": "nftAddress",
          "type": "address"
        },
        {
          "indexed": true,
          "internalType": "uint256",
          "name": "tokenId",
          "type": "uint256"
        },
        {
          "indexed": true,
          "internalType": "address",
          "name": "bidder",
          "type": "address"
        },
        {
          "indexed": false,
          "internalType": "uint256",
          "name": "bid",
          "type": "uint256"
        }
      ],
      "name": "BidRefunded",
      "type": "event"
    },
    {
      "anonymous": false,
      "inputs": [
        {
          "indexed": true,
          "internalType": "address",
          "name": "nftAddress",
          "type": "address"
        },
        {
          "indexed": true,
          "internalType": "uint256",
          "name": "tokenId",
          "type": "uint256"
        },
        {
          "indexed": true,
          "internalType": "address",
          "name": "bidder",
          "type": "address"
        },
        {
          "indexed": false,
          "internalType": "uint256",
          "name": "bid",
          "type": "uint256"
        }
      ],
      "name": "BidWithdrawn",
      "type": "event"
    },
    {
      "anonymous": false,
      "inputs": [],
      "name": "FantomAuctionContractDeployed",
      "type": "event"
    },
    {
      "anonymous": false,
      "inputs": [
        {
          "indexed": true,
          "internalType": "address",
          "name": "previousOwner",
          "type": "address"
        },
        {
          "indexed": true,
          "internalType": "address",
          "name": "newOwner",
          "type": "address"
        }
      ],
      "name": "OwnershipTransferred",
      "type": "event"
    },
    {
      "anonymous": false,
      "inputs": [
        {
          "indexed": false,
          "internalType": "bool",
          "name": "isPaused",
          "type": "bool"
        }
      ],
      "name": "PauseToggled",
      "type": "event"
    },
    {
      "anonymous": false,
      "inputs": [
        {
          "indexed": true,
          "internalType": "address",
          "name": "nftAddress",
          "type": "address"
        },
        {
          "indexed": true,
          "internalType": "uint256",
          "name": "tokenId",
          "type": "uint256"
        },
        {
          "indexed": false,
          "internalType": "address",
          "name": "payToken",
          "type": "address"
        },
        {
          "indexed": false,
          "internalType": "uint256",
          "name": "reservePrice",
          "type": "uint256"
        }
      ],
      "name": "UpdateAuctionReservePrice",
      "type": "event"
    },
    {
      "anonymous": false,
      "inputs": [
        {
          "indexed": false,
          "internalType": "uint256",
          "name": "bidWithdrawalLockTime",
          "type": "uint256"
        }
      ],
      "name": "UpdateBidWithdrawalLockTime",
      "type": "event"
    },
    {
      "anonymous": false,
      "inputs": [
        {
          "indexed": false,
          "internalType": "uint256",
          "name": "minBidIncrement",
          "type": "uint256"
        }
      ],
      "name": "UpdateMinBidIncrement",
      "type": "event"
    },
    {
      "anonymous": false,
      "inputs": [
        {
          "indexed": false,
          "internalType": "uint256",
          "name": "platformFee",
          "type": "uint256"
        }
      ],
      "name": "UpdatePlatformFee",
      "type": "event"
    },
    {
      "anonymous": false,
      "inputs": [
        {
          "indexed": false,
          "internalType": "address payable",
          "name": "platformFeeRecipient",
          "type": "address"
        }
      ],
      "name": "UpdatePlatformFeeRecipient",
      "type": "event"
    },
    {
      "inputs": [],
      "name": "addressRegistry",
      "outputs": [
        {
          "internalType": "contract IFantomAddressRegistry",
          "name": "",
          "type": "address"
        }
      ],
      "stateMutability": "view",
      "type": "function"
    },
    {
      "inputs": [
        {
          "internalType": "address",
          "name": "",
          "type": "address"
        },
        {
          "internalType": "uint256",
          "name": "",
          "type": "uint256"
        }
      ],
      "name": "auctions",
      "outputs": [
        {
          "internalType": "address",
          "name": "owner",
          "type": "address"
        },
        {
          "internalType": "address",
          "name": "payToken",
          "type": "address"
        },
        {
          "internalType": "uint256",
          "name": "minBid",
          "type": "uint256"
        },
        {
          "internalType": "uint256",
          "name": "reservePrice",
          "type": "uint256"
        },
        {
          "internalType": "uint256",
          "name": "startTime",
          "type": "uint256"
        },
        {
          "internalType": "uint256",
          "name": "endTime",
          "type": "uint256"
        },
        {
          "internalType": "bool",
          "name": "resulted",
          "type": "bool"
        }
      ],
      "stateMutability": "view",
      "type": "function"
    },
    {
      "inputs": [],
      "name": "bidWithdrawalLockTime",
      "outputs": [
        {
          "internalType": "uint256",
          "name": "",
          "type": "uint256"
        }
      ],
      "stateMutability": "view",
      "type": "function"
    },
    {
      "inputs": [
        {
          "internalType": "address",
          "name": "",
          "type": "address"
        },
        {
          "internalType": "uint256",
          "name": "",
          "type": "uint256"
        }
      ],
      "name": "highestBids",
      "outputs": [
        {
          "internalType": "address payable",
          "name": "bidder",
          "type": "address"
        },
        {
          "internalType": "uint256",
          "name": "bid",
          "type": "uint256"
        },
        {
          "internalType": "uint256",
          "name": "lastBidTime",
          "type": "uint256"
        }
      ],
      "stateMutability": "view",
      "type": "function"
    },
    {
      "inputs": [],
      "name": "isPaused",
      "outputs": [
        {
          "internalType": "bool",
          "name": "",
          "type": "bool"
        }
      ],
      "stateMutability": "view",
      "type": "function"
    },
    {
      "inputs": [],
      "name": "maxAuctionLength",
      "outputs": [
        {
          "internalType": "uint256",
          "name": "",
          "type": "uint256"
        }
      ],
      "stateMutability": "view",
      "type": "function"
    },
    {
      "inputs": [],
      "name": "minBidIncrement",
      "outputs": [
        {
          "internalType": "uint256",
          "name": "",
          "type": "uint256"
        }
      ],
      "stateMutability": "view",
      "type": "function"
    },
    {
      "inputs": [],
      "name": "owner",
      "outputs": [
        {
          "internalType": "address",
          "name": "",
          "type": "address"
        }
      ],
      "stateMutability": "view",
      "type": "function"
    },
    {
      "inputs": [],
      "name": "platformFee",
      "outputs": [
        {
          "internalType": "uint256",
          "name": "",
          "type": "uint256"
        }
      ],
      "stateMutability": "view",
      "type": "function"
    },
    {
      "inputs": [],
      "name": "platformFeeRecipient",
      "outputs": [
        {
          "internalType": "address payable",
          "name": "",
          "type": "address"
        }
      ],
      "stateMutability": "view",
      "type": "function"
    },
    {
      "inputs": [],
      "name": "renounceOwnership",
      "outputs": [],
      "stateMutability": "nonpayable",
      "type": "function"
    },
    {
      "inputs": [
        {
          "internalType": "address",
          "name": "newOwner",
          "type": "address"
        }
      ],
      "name": "transferOwnership",
      "outputs": [],
      "stateMutability": "nonpayable",
      "type": "function"
    },
    {
      "inputs": [
        {
          "internalType": "address payable",
          "name": "_platformFeeRecipient",
          "type": "address"
        }
      ],
      "name": "initialize",
      "outputs": [],
      "stateMutability": "nonpayable",
      "type": "function"
    },
    {
      "inputs": [
        {
          "internalType": "address",
          "name": "_nftAddress",
          "type": "address"
        },
        {
          "internalType": "uint256",
          "name": "_tokenId",
          "type": "uint256"
        },
        {
          "internalType": "address",
          "name": "_payToken",
          "type": "address"
        },
        {
          "internalType": "uint256",
          "name": "_reservePrice",
          "type": "uint256"
        },
        {
          "internalType": "uint256",
          "name": "_startTimestamp",
          "type": "uint256"
        },
        {
          "internalType": "bool",
          "name": "minBidReserve",
          "type": "bool"
        },
        {
          "internalType": "uint256",
          "name": "_endTimestamp",
          "type": "uint256"
        }
      ],
      "name": "createAuction",
      "outputs": [],
      "stateMutability": "nonpayable",
      "type": "function"
    },
    {
      "inputs": [
        {
          "internalType": "address",
          "name": "_nftAddress",
          "type": "address"
        },
        {
          "internalType": "uint256",
          "name": "_tokenId",
          "type": "uint256"
        },
        {
          "internalType": "uint256",
          "name": "_bidAmount",
          "type": "uint256"
        }
      ],
      "name": "placeBid",
      "outputs": [],
      "stateMutability": "nonpayable",
      "type": "function"
    },
    {
      "inputs": [
        {
          "internalType": "address",
          "name": "_nftAddress",
          "type": "address"
        },
        {
          "internalType": "uint256",
          "name": "_tokenId",
          "type": "uint256"
        }
      ],
      "name": "resultAuction",
      "outputs": [],
      "stateMutability": "nonpayable",
      "type": "function"
    },
    {
      "inputs": [
        {
          "internalType": "address",
          "name": "_nftAddress",
          "type": "address"
        },
        {
          "internalType": "uint256",
          "name": "_tokenId",
          "type": "uint256"
        }
      ],
      "name": "resultFailedAuction",
      "outputs": [],
      "stateMutability": "nonpayable",
      "type": "function"
    },
    {
      "inputs": [
        {
          "internalType": "address",
          "name": "_nftAddress",
          "type": "address"
        },
        {
          "internalType": "uint256",
          "name": "_tokenId",
          "type": "uint256"
        }
      ],
      "name": "cancelAuction",
      "outputs": [],
      "stateMutability": "nonpayable",
      "type": "function"
    },
    {
      "inputs": [],
      "name": "toggleIsPaused",
      "outputs": [],
      "stateMutability": "nonpayable",
      "type": "function"
    },
    {
      "inputs": [
        {
          "internalType": "uint256",
          "name": "_minBidIncrement",
          "type": "uint256"
        }
      ],
      "name": "updateMinBidIncrement",
      "outputs": [],
      "stateMutability": "nonpayable",
      "type": "function"
    },
    {
      "inputs": [
        {
          "internalType": "address",
          "name": "_nftAddress",
          "type": "address"
        },
        {
          "internalType": "uint256",
          "name": "_tokenId",
          "type": "uint256"
        },
        {
          "internalType": "uint256",
          "name": "_reservePrice",
          "type": "uint256"
        }
      ],
      "name": "updateAuctionReservePrice",
      "outputs": [],
      "stateMutability": "nonpayable",
      "type": "function"
    },
    {
      "inputs": [
        {
          "internalType": "uint256",
          "name": "_bidWithdrawalLockTime",
          "type": "uint256"
        }
      ],
      "name": "updateBidWithdrawalLockTime",
      "outputs": [],
      "stateMutability": "nonpayable",
      "type": "function"
    },
    {
      "inputs": [
        {
          "internalType": "uint256",
          "name": "_platformFee",
          "type": "uint256"
        }
      ],
      "name": "updatePlatformFee",
      "outputs": [],
      "stateMutability": "nonpayable",
      "type": "function"
    },
    {
      "inputs": [
        {
          "internalType": "address payable",
          "name": "_platformFeeRecipient",
          "type": "address"
        }
      ],
      "name": "updatePlatformFeeRecipient",
      "outputs": [],
      "stateMutability": "nonpayable",
      "type": "function"
    },
    {
      "inputs": [
        {
          "internalType": "address",
          "name": "_registry",
          "type": "address"
        }
      ],
      "name": "updateAddressRegistry",
      "outputs": [],
      "stateMutability": "nonpayable",
      "type": "function"
    },
    {
      "inputs": [
        {
          "internalType": "address",
          "name": "_nftAddress",
          "type": "address"
        },
        {
          "internalType": "uint256",
          "name": "_tokenId",
          "type": "uint256"
        }
      ],
      "name": "getAuction",
      "outputs": [
        {
          "internalType": "address",
          "name": "_owner",
          "type": "address"
        },
        {
          "internalType": "address",
          "name": "_payToken",
          "type": "address"
        },
        {
          "internalType": "uint256",
          "name": "_reservePrice",
          "type": "uint256"
        },
        {
          "internalType": "uint256",
          "name": "_startTime",
          "type": "uint256"
        },
        {
          "internalType": "uint256",
          "name": "_endTime",
          "type": "uint256"
        },
        {
          "internalType": "bool",
          "name": "_resulted",
          "type": "bool"
        },
        {
          "internalType": "uint256",
          "name": "minBid",
          "type": "uint256"
        }
      ],
      "stateMutability": "view",
      "type": "function"
    },
    {
      "inputs": [
        {
          "internalType": "address",
          "name": "_nftAddress",
          "type": "address"
        },
        {
          "internalType": "uint256",
          "name": "_tokenId",
          "type": "uint256"
        }
      ],
      "name": "getHighestBidder",
      "outputs": [
        {
          "internalType": "address payable",
          "name": "_bidder",
          "type": "address"
        },
        {
          "internalType": "uint256",
          "name": "_bid",
          "type": "uint256"
        },
        {
          "internalType": "uint256",
          "name": "_lastBidTime",
          "type": "uint256"
        }
      ],
      "stateMutability": "view",
      "type": "function"
    },
    {
      "inputs": [
        {
          "internalType": "address",
          "name": "_tokenContract",
          "type": "address"
        }
      ],
      "name": "reclaimERC20",
      "outputs": [],
      "stateMutability": "nonpayable",
      "type": "function"
    }
  ],
  "bytecode": "0x608060405260016099556104b0609a556019609b5534801561002057600080fd5b5061758580620000316000396000f3fe608060405234801561001057600080fd5b50600436106101c45760003560e01c80638905fd4f116100f9578063b6a9711f11610097578063f2fde38b11610071578063f2fde38b146104c5578063f3ad65f4146104e1578063f5fe7f71146104ff578063f9613d7f1461051b576101c4565b8063b6a9711f1461046f578063c4d66de81461048b578063eb13554f146104a7576101c4565b8063a670a9b4116100d3578063a670a9b4146103e7578063aa0b598814610419578063ab2870e214610435578063b187bd2614610451576101c4565b80638905fd4f146103915780638da5cb5b146103ad578063a062feb9146103cb576101c4565b8063623de5ad116101665780636b753f36116101405780636b753f3614610303578063715018a614610335578063762a66a21461033f578063859b97fe14610375576101c4565b8063623de5ad146102ad57806368e79e89146102c95780636a5362f6146102e5576101c4565b806326232a2e116101a257806326232a2e1461021f578063335b115e1461023d57806344f91c1e1461025b5780635f7063ef14610291576101c4565b806304717aca146101c9578063083759e0146101e55780630e519ef914610201575b600080fd5b6101e360048036038101906101de9190615964565b610525565b005b6101ff60048036038101906101fa9190615a91565b610842565b005b6102096108ff565b60405161021691906168f6565b60405180910390f35b610227610906565b60405161023491906168f6565b60405180910390f35b61024561090c565b60405161025291906168f6565b60405180910390f35b61027560048036038101906102709190615882565b610912565b60405161028897969594939291906162d1565b60405180910390f35b6102ab60048036038101906102a69190615882565b6109ae565b005b6102c760048036038101906102c29190615a91565b61211c565b005b6102e360048036038101906102de91906157fb565b6121d9565b005b6102ed612299565b6040516102fa91906168f6565b60405180910390f35b61031d60048036038101906103189190615882565b61229f565b60405161032c93929190616186565b60405180910390f35b61033d6122f6565b005b61035960048036038101906103549190615882565b61237e565b60405161036c9796959493929190616262565b60405180910390f35b61038f600480360381019061038a9190615882565b612467565b005b6103ab60048036038101906103a691906157fb565b61287d565b005b6103b5612ad3565b6040516103c29190616127565b60405180910390f35b6103e560048036038101906103e09190615964565b612afd565b005b61040160048036038101906103fc9190615882565b612e12565b60405161041093929190616186565b60405180910390f35b610433600480360381019061042e9190615a91565b612ea7565b005b61044f600480360381019061044a91906158c2565b612f64565b005b61045961342c565b60405161046691906163a0565b60405180910390f35b61048960048036038101906104849190615882565b61343f565b005b6104a560048036038101906104a09190615855565b613bc0565b005b6104af613d87565b6040516104bc9190616142565b60405180910390f35b6104df60048036038101906104da91906157fb565b613dad565b005b6104e9613ea5565b6040516104f691906163bb565b60405180910390f35b61051960048036038101906105149190615855565b613ecb565b005b610523614032565b005b6002606554141561056b576040517f08c379a0000000000000000000000000000000000000000000000000000000008152600401610562906168b6565b60405180910390fd5b6002606581905550609d60149054906101000a900460ff16156105c3576040517f08c379a00000000000000000000000000000000000000000000000000000000081526004016105ba906167d6565b60405180910390fd5b3273ffffffffffffffffffffffffffffffffffffffff166105e2614120565b73ffffffffffffffffffffffffffffffffffffffff161461060257600080fd5b6000609760008573ffffffffffffffffffffffffffffffffffffffff1673ffffffffffffffffffffffffffffffffffffffff16815260200190815260200160002060008481526020019081526020016000206040518060e00160405290816000820160009054906101000a900473ffffffffffffffffffffffffffffffffffffffff1673ffffffffffffffffffffffffffffffffffffffff1673ffffffffffffffffffffffffffffffffffffffff1681526020016001820160009054906101000a900473ffffffffffffffffffffffffffffffffffffffff1673ffffffffffffffffffffffffffffffffffffffff1673ffffffffffffffffffffffffffffffffffffffff168152602001600282015481526020016003820154815260200160048201548152602001600582015481526020016006820160009054906101000a900460ff1615151515815250509050806080015161075d614128565b1015801561077657508060a00151610773614128565b11155b6107b5576040517f08c379a00000000000000000000000000000000000000000000000000000000081526004016107ac90616896565b60405180910390fd5b600073ffffffffffffffffffffffffffffffffffffffff16816020015173ffffffffffffffffffffffffffffffffffffffff161415610829576040517f08c379a0000000000000000000000000000000000000000000000000000000008152600401610820906167f6565b60405180910390fd5b610834848484614130565b506001606581905550505050565b61084a614120565b73ffffffffffffffffffffffffffffffffffffffff16610868612ad3565b73ffffffffffffffffffffffffffffffffffffffff16146108be576040517f08c379a00000000000000000000000000000000000000000000000000000000081526004016108b590616716565b60405180910390fd5b806099819055507f489b0441344cbdcb036bee4857de51567f580e9747166f76b581be803ca45fcb816040516108f491906168f6565b60405180910390a150565b62278d0081565b609b5481565b60995481565b6097602052816000526040600020602052806000526040600020600091509150508060000160009054906101000a900473ffffffffffffffffffffffffffffffffffffffff16908060010160009054906101000a900473ffffffffffffffffffffffffffffffffffffffff16908060020154908060030154908060040154908060050154908060060160009054906101000a900460ff16905087565b600260655414156109f4576040517f08c379a00000000000000000000000000000000000000000000000000000000081526004016109eb906168b6565b60405180910390fd5b60026065819055506000609760008473ffffffffffffffffffffffffffffffffffffffff1673ffffffffffffffffffffffffffffffffffffffff1681526020019081526020016000206000838152602001908152602001600020905060008160000160009054906101000a900473ffffffffffffffffffffffffffffffffffffffff1690503073ffffffffffffffffffffffffffffffffffffffff168473ffffffffffffffffffffffffffffffffffffffff16636352211e856040518263ffffffff1660e01b8152600401610ac991906168f6565b60206040518083038186803b158015610ae157600080fd5b505afa158015610af5573d6000803e3d6000fd5b505050506040513d601f19601f82011682018060405250810190610b199190615828565b73ffffffffffffffffffffffffffffffffffffffff1614610b6f576040517f08c379a0000000000000000000000000000000000000000000000000000000008152600401610b6690616676565b60405180910390fd5b6000826005015411610bb6576040517f08c379a0000000000000000000000000000000000000000000000000000000008152600401610bad90616636565b60405180910390fd5b8160050154610bc3614128565b11610c03576040517f08c379a0000000000000000000000000000000000000000000000000000000008152600401610bfa90616796565b60405180910390fd5b8160060160009054906101000a900460ff1615610c55576040517f08c379a0000000000000000000000000000000000000000000000000000000008152600401610c4c90616756565b60405180910390fd5b6000609860008673ffffffffffffffffffffffffffffffffffffffff1673ffffffffffffffffffffffffffffffffffffffff1681526020019081526020016000206000858152602001908152602001600020905060008160000160009054906101000a900473ffffffffffffffffffffffffffffffffffffffff1690506000826001015490508173ffffffffffffffffffffffffffffffffffffffff16610cfa614120565b73ffffffffffffffffffffffffffffffffffffffff161480610d4e57508373ffffffffffffffffffffffffffffffffffffffff16610d36614120565b73ffffffffffffffffffffffffffffffffffffffff16145b610d8d576040517f08c379a0000000000000000000000000000000000000000000000000000000008152600401610d84906165f6565b60405180910390fd5b600073ffffffffffffffffffffffffffffffffffffffff168273ffffffffffffffffffffffffffffffffffffffff161415610dfd576040517f08c379a0000000000000000000000000000000000000000000000000000000008152600401610df4906164b6565b60405180910390fd5b8460030154811015610e44576040517f08c379a0000000000000000000000000000000000000000000000000000000008152600401610e3b906167b6565b60405180910390fd5b8673ffffffffffffffffffffffffffffffffffffffff1663e985e9c5610e68614120565b306040518363ffffffff1660e01b8152600401610e869291906161bd565b60206040518083038186803b158015610e9e57600080fd5b505afa158015610eb2573d6000803e3d6000fd5b505050506040513d601f19601f82011682018060405250810190610ed691906159b7565b610f15576040517f08c379a0000000000000000000000000000000000000000000000000000000008152600401610f0c906166b6565b60405180910390fd5b60018560060160006101000a81548160ff021916908315150217905550609860008873ffffffffffffffffffffffffffffffffffffffff1673ffffffffffffffffffffffffffffffffffffffff1681526020019081526020016000206000878152602001908152602001600020600080820160006101000a81549073ffffffffffffffffffffffffffffffffffffffff021916905560018201600090556002820160009055505060008560030154821115611274576000610fe387600301548461469290919063ffffffff16565b905060006110106103e8611002609b54856146a890919063ffffffff16565b6146be90919063ffffffff16565b9050600073ffffffffffffffffffffffffffffffffffffffff168860010160009054906101000a900473ffffffffffffffffffffffffffffffffffffffff1673ffffffffffffffffffffffffffffffffffffffff16141561113f576000609c60009054906101000a900473ffffffffffffffffffffffffffffffffffffffff1673ffffffffffffffffffffffffffffffffffffffff16826040516110b390616112565b60006040518083038185875af1925050503d80600081146110f0576040519150601f19603f3d011682016040523d82523d6000602084013e6110f5565b606091505b5050905080611139576040517f08c379a000000000000000000000000000000000000000000000000000000000815260040161113090616556565b60405180910390fd5b50611258565b60008860010160009054906101000a900473ffffffffffffffffffffffffffffffffffffffff1690508073ffffffffffffffffffffffffffffffffffffffff1663a9059cbb609c60009054906101000a900473ffffffffffffffffffffffffffffffffffffffff16846040518363ffffffff1660e01b81526004016111c592919061615d565b602060405180830381600087803b1580156111df57600080fd5b505af11580156111f3573d6000803e3d6000fd5b505050506040513d601f19601f8201168201806040525081019061121791906159b7565b611256576040517f08c379a000000000000000000000000000000000000000000000000000000000815260040161124d90616556565b60405180910390fd5b505b61126b818561469290919063ffffffff16565b92505050611278565b8190505b6000609d60009054906101000a900473ffffffffffffffffffffffffffffffffffffffff1673ffffffffffffffffffffffffffffffffffffffff1663abc8c7af6040518163ffffffff1660e01b815260040160206040518083038186803b1580156112e257600080fd5b505afa1580156112f6573d6000803e3d6000fd5b505050506040513d601f19601f8201168201806040525081019061131a9190615828565b905060008173ffffffffffffffffffffffffffffffffffffffff166378746d0d8b8b6040518363ffffffff1660e01b8152600401611359929190616340565b60206040518083038186803b15801561137157600080fd5b505afa158015611385573d6000803e3d6000fd5b505050506040513d601f19601f820116820180604052508101906113a99190615828565b905060008273ffffffffffffffffffffffffffffffffffffffff1663e1e549c48c8c6040518363ffffffff1660e01b81526004016113e8929190616340565b60206040518083038186803b15801561140057600080fd5b505afa158015611414573d6000803e3d6000fd5b505050506040513d601f19601f820116820180604052508101906114389190615a11565b9050600073ffffffffffffffffffffffffffffffffffffffff168273ffffffffffffffffffffffffffffffffffffffff161415801561147c575060008161ffff1614155b156116cd5760006114ae6127106114a08461ffff16886146a890919063ffffffff16565b6146be90919063ffffffff16565b9050600073ffffffffffffffffffffffffffffffffffffffff168a60010160009054906101000a900473ffffffffffffffffffffffffffffffffffffffff1673ffffffffffffffffffffffffffffffffffffffff1614156115bb5760008373ffffffffffffffffffffffffffffffffffffffff168260405161152f90616112565b60006040518083038185875af1925050503d806000811461156c576040519150601f19603f3d011682016040523d82523d6000602084013e611571565b606091505b50509050806115b5576040517f08c379a00000000000000000000000000000000000000000000000000000000081526004016115ac90616496565b60405180910390fd5b506116b2565b60008a60010160009054906101000a900473ffffffffffffffffffffffffffffffffffffffff1690508073ffffffffffffffffffffffffffffffffffffffff1663a9059cbb85846040518363ffffffff1660e01b815260040161161f929190616340565b602060405180830381600087803b15801561163957600080fd5b505af115801561164d573d6000803e3d6000fd5b505050506040513d601f19601f8201168201806040525081019061167191906159b7565b6116b0576040517f08c379a00000000000000000000000000000000000000000000000000000000081526004016116a790616496565b60405180910390fd5b505b6116c5818661469290919063ffffffff16565b9450506119f0565b8273ffffffffffffffffffffffffffffffffffffffff166357b275b48c6040518263ffffffff1660e01b81526004016117069190616127565b60606040518083038186803b15801561171e57600080fd5b505afa158015611732573d6000803e3d6000fd5b505050506040513d601f19601f820116820180604052508101906117569190615a3e565b90508093508192505050600073ffffffffffffffffffffffffffffffffffffffff168273ffffffffffffffffffffffffffffffffffffffff16141580156117a2575060008161ffff1614155b156119ef5760006117d46127106117c68461ffff16886146a890919063ffffffff16565b6146be90919063ffffffff16565b9050600073ffffffffffffffffffffffffffffffffffffffff168a60010160009054906101000a900473ffffffffffffffffffffffffffffffffffffffff1673ffffffffffffffffffffffffffffffffffffffff1614156118e15760008373ffffffffffffffffffffffffffffffffffffffff168260405161185590616112565b60006040518083038185875af1925050503d8060008114611892576040519150601f19603f3d011682016040523d82523d6000602084013e611897565b606091505b50509050806118db576040517f08c379a00000000000000000000000000000000000000000000000000000000081526004016118d290616596565b60405180910390fd5b506119d8565b60008a60010160009054906101000a900473ffffffffffffffffffffffffffffffffffffffff1690508073ffffffffffffffffffffffffffffffffffffffff1663a9059cbb85846040518363ffffffff1660e01b8152600401611945929190616340565b602060405180830381600087803b15801561195f57600080fd5b505af1158015611973573d6000803e3d6000fd5b505050506040513d601f19601f8201168201806040525081019061199791906159b7565b6119d6576040517f08c379a00000000000000000000000000000000000000000000000000000000081526004016119cd90616596565b60405180910390fd5b505b6119eb818661469290919063ffffffff16565b9450505b5b6000841115611c4457600073ffffffffffffffffffffffffffffffffffffffff168960010160009054906101000a900473ffffffffffffffffffffffffffffffffffffffff1673ffffffffffffffffffffffffffffffffffffffff161415611b285760008960000160009054906101000a900473ffffffffffffffffffffffffffffffffffffffff1673ffffffffffffffffffffffffffffffffffffffff1685604051611a9c90616112565b60006040518083038185875af1925050503d8060008114611ad9576040519150601f19603f3d011682016040523d82523d6000602084013e611ade565b606091505b5050905080611b22576040517f08c379a0000000000000000000000000000000000000000000000000000000008152600401611b1990616656565b60405180910390fd5b50611c43565b60008960010160009054906101000a900473ffffffffffffffffffffffffffffffffffffffff1690508073ffffffffffffffffffffffffffffffffffffffff1663a9059cbb8b60000160009054906101000a900473ffffffffffffffffffffffffffffffffffffffff16876040518363ffffffff1660e01b8152600401611bb0929190616340565b602060405180830381600087803b158015611bca57600080fd5b505af1158015611bde573d6000803e3d6000fd5b505050506040513d601f19601f82011682018060405250810190611c0291906159b7565b611c41576040517f08c379a0000000000000000000000000000000000000000000000000000000008152600401611c3890616656565b60405180910390fd5b505b5b8a73ffffffffffffffffffffffffffffffffffffffff166342842e0e8c73ffffffffffffffffffffffffffffffffffffffff16636352211e8d6040518263ffffffff1660e01b8152600401611c9991906168f6565b60206040518083038186803b158015611cb157600080fd5b505afa158015611cc5573d6000803e3d6000fd5b505050506040513d601f19601f82011682018060405250810190611ce99190615828565b888d6040518463ffffffff1660e01b8152600401611d099392919061622b565b600060405180830381600087803b158015611d2357600080fd5b505af1158015611d37573d6000803e3d6000fd5b50505050609d60009054906101000a900473ffffffffffffffffffffffffffffffffffffffff1673ffffffffffffffffffffffffffffffffffffffff16639e1f5b286040518163ffffffff1660e01b815260040160206040518083038186803b158015611da357600080fd5b505afa158015611db7573d6000803e3d6000fd5b505050506040513d601f19601f82011682018060405250810190611ddb9190615828565b73ffffffffffffffffffffffffffffffffffffffff166327c1f4f48c8c60016040518463ffffffff1660e01b8152600401611e1893929190616369565b600060405180830381600087803b158015611e3257600080fd5b505af1158015611e46573d6000803e3d6000fd5b505050506000609d60009054906101000a900473ffffffffffffffffffffffffffffffffffffffff1673ffffffffffffffffffffffffffffffffffffffff1663abc8c7af6040518163ffffffff1660e01b815260040160206040518083038186803b158015611eb457600080fd5b505afa158015611ec8573d6000803e3d6000fd5b505050506040513d601f19601f82011682018060405250810190611eec9190615828565b73ffffffffffffffffffffffffffffffffffffffff166341976e098b60010160009054906101000a900473ffffffffffffffffffffffffffffffffffffffff166040518263ffffffff1660e01b8152600401611f489190616127565b60206040518083038186803b158015611f6057600080fd5b505afa158015611f74573d6000803e3d6000fd5b505050506040513d601f19601f82011682018060405250810190611f9891906159e4565b90508673ffffffffffffffffffffffffffffffffffffffff168b8d73ffffffffffffffffffffffffffffffffffffffff167fa717395bf4be1915f0bc8e6cf9b0f526c5ad40a0c3750b709a29a834daf0fd9b611ff2614120565b8e60010160009054906101000a900473ffffffffffffffffffffffffffffffffffffffff16868c60405161202994939291906161e6565b60405180910390a4609760008d73ffffffffffffffffffffffffffffffffffffffff1673ffffffffffffffffffffffffffffffffffffffff16815260200190815260200160002060008c8152602001908152602001600020600080820160006101000a81549073ffffffffffffffffffffffffffffffffffffffff02191690556001820160006101000a81549073ffffffffffffffffffffffffffffffffffffffff021916905560028201600090556003820160009055600482016000905560058201600090556006820160006101000a81549060ff021916905550505050505050505050505060016065819055505050565b612124614120565b73ffffffffffffffffffffffffffffffffffffffff16612142612ad3565b73ffffffffffffffffffffffffffffffffffffffff1614612198576040517f08c379a000000000000000000000000000000000000000000000000000000000815260040161218f90616716565b60405180910390fd5b80609a819055507ff9e4b69944d3fbdd96aedcda02032e2091346ececc3b55a485b40a6dc09bb9e0816040516121ce91906168f6565b60405180910390a150565b6121e1614120565b73ffffffffffffffffffffffffffffffffffffffff166121ff612ad3565b73ffffffffffffffffffffffffffffffffffffffff1614612255576040517f08c379a000000000000000000000000000000000000000000000000000000000815260040161224c90616716565b60405180910390fd5b80609d60006101000a81548173ffffffffffffffffffffffffffffffffffffffff021916908373ffffffffffffffffffffffffffffffffffffffff16021790555050565b609a5481565b6098602052816000526040600020602052806000526040600020600091509150508060000160009054906101000a900473ffffffffffffffffffffffffffffffffffffffff16908060010154908060020154905083565b6122fe614120565b73ffffffffffffffffffffffffffffffffffffffff1661231c612ad3565b73ffffffffffffffffffffffffffffffffffffffff1614612372576040517f08c379a000000000000000000000000000000000000000000000000000000000815260040161236990616716565b60405180910390fd5b61237c60006146d4565b565b600080600080600080600080609760008b73ffffffffffffffffffffffffffffffffffffffff1673ffffffffffffffffffffffffffffffffffffffff16815260200190815260200160002060008a815260200190815260200160002090508060000160009054906101000a900473ffffffffffffffffffffffffffffffffffffffff168160010160009054906101000a900473ffffffffffffffffffffffffffffffffffffffff168260030154836004015484600501548560060160009054906101000a900460ff16866002015497509750975097509750975097505092959891949750929550565b600260655414156124ad576040517f08c379a00000000000000000000000000000000000000000000000000000000081526004016124a4906168b6565b60405180910390fd5b60026065819055506000609760008473ffffffffffffffffffffffffffffffffffffffff1673ffffffffffffffffffffffffffffffffffffffff16815260200190815260200160002060008381526020019081526020016000206040518060e00160405290816000820160009054906101000a900473ffffffffffffffffffffffffffffffffffffffff1673ffffffffffffffffffffffffffffffffffffffff1673ffffffffffffffffffffffffffffffffffffffff1681526020016001820160009054906101000a900473ffffffffffffffffffffffffffffffffffffffff1673ffffffffffffffffffffffffffffffffffffffff1673ffffffffffffffffffffffffffffffffffffffff168152602001600282015481526020016003820154815260200160048201548152602001600582015481526020016006820160009054906101000a900460ff16151515158152505090503073ffffffffffffffffffffffffffffffffffffffff168373ffffffffffffffffffffffffffffffffffffffff16636352211e846040518263ffffffff1660e01b815260040161265391906168f6565b60206040518083038186803b15801561266b57600080fd5b505afa15801561267f573d6000803e3d6000fd5b505050506040513d601f19601f820116820180604052508101906126a39190615828565b73ffffffffffffffffffffffffffffffffffffffff161480156126fc5750806000015173ffffffffffffffffffffffffffffffffffffffff166126e4614120565b73ffffffffffffffffffffffffffffffffffffffff16145b61273b576040517f08c379a0000000000000000000000000000000000000000000000000000000008152600401612732906168d6565b60405180910390fd5b60008160a0015111612782576040517f08c379a000000000000000000000000000000000000000000000000000000000815260040161277990616636565b60405180910390fd5b8060c00151156127c7576040517f08c379a00000000000000000000000000000000000000000000000000000000081526004016127be90616756565b60405180910390fd5b6000609860008573ffffffffffffffffffffffffffffffffffffffff1673ffffffffffffffffffffffffffffffffffffffff168152602001908152602001600020600084815260200190815260200160002090508160600151816001015410612865576040517f08c379a000000000000000000000000000000000000000000000000000000000815260040161285c90616876565b60405180910390fd5b61286f848461479a565b505060016065819055505050565b612885614120565b73ffffffffffffffffffffffffffffffffffffffff166128a3612ad3565b73ffffffffffffffffffffffffffffffffffffffff16146128f9576040517f08c379a00000000000000000000000000000000000000000000000000000000081526004016128f090616716565b60405180910390fd5b600073ffffffffffffffffffffffffffffffffffffffff168173ffffffffffffffffffffffffffffffffffffffff161415612969576040517f08c379a000000000000000000000000000000000000000000000000000000000815260040161296090616476565b60405180910390fd5b600081905060008173ffffffffffffffffffffffffffffffffffffffff166370a08231306040518263ffffffff1660e01b81526004016129a99190616127565b60206040518083038186803b1580156129c157600080fd5b505afa1580156129d5573d6000803e3d6000fd5b505050506040513d601f19601f820116820180604052508101906129f99190615abe565b90508173ffffffffffffffffffffffffffffffffffffffff1663a9059cbb612a1f614120565b836040518363ffffffff1660e01b8152600401612a3d929190616340565b602060405180830381600087803b158015612a5757600080fd5b505af1158015612a6b573d6000803e3d6000fd5b505050506040513d601f19601f82011682018060405250810190612a8f91906159b7565b612ace576040517f08c379a0000000000000000000000000000000000000000000000000000000008152600401612ac590616536565b60405180910390fd5b505050565b6000603360009054906101000a900473ffffffffffffffffffffffffffffffffffffffff16905090565b6000609760008573ffffffffffffffffffffffffffffffffffffffff1673ffffffffffffffffffffffffffffffffffffffff168152602001908152602001600020600084815260200190815260200160002090506000816003015490503073ffffffffffffffffffffffffffffffffffffffff168573ffffffffffffffffffffffffffffffffffffffff16636352211e866040518263ffffffff1660e01b8152600401612baa91906168f6565b60206040518083038186803b158015612bc257600080fd5b505afa158015612bd6573d6000803e3d6000fd5b505050506040513d601f19601f82011682018060405250810190612bfa9190615828565b73ffffffffffffffffffffffffffffffffffffffff16148015612c7357508160000160009054906101000a900473ffffffffffffffffffffffffffffffffffffffff1673ffffffffffffffffffffffffffffffffffffffff16612c5b614120565b73ffffffffffffffffffffffffffffffffffffffff16145b612cb2576040517f08c379a0000000000000000000000000000000000000000000000000000000008152600401612ca990616616565b60405180910390fd5b8160060160009054906101000a900460ff1615612d04576040517f08c379a0000000000000000000000000000000000000000000000000000000008152600401612cfb906166f6565b60405180910390fd5b6000826005015411612d4b576040517f08c379a0000000000000000000000000000000000000000000000000000000008152600401612d42906164d6565b60405180910390fd5b808310612d8d576040517f08c379a0000000000000000000000000000000000000000000000000000000008152600401612d8490616836565b60405180910390fd5b828260030181905550838573ffffffffffffffffffffffffffffffffffffffff167f1492815b4a41d34cc0015f8ba8013fa45717ea6d8591db6036bdca706981fe838460010160009054906101000a900473ffffffffffffffffffffffffffffffffffffffff1686604051612e03929190616340565b60405180910390a35050505050565b600080600080609860008773ffffffffffffffffffffffffffffffffffffffff1673ffffffffffffffffffffffffffffffffffffffff168152602001908152602001600020600086815260200190815260200160002090508060000160009054906101000a900473ffffffffffffffffffffffffffffffffffffffff1681600101548260020154935093509350509250925092565b612eaf614120565b73ffffffffffffffffffffffffffffffffffffffff16612ecd612ad3565b73ffffffffffffffffffffffffffffffffffffffff1614612f23576040517f08c379a0000000000000000000000000000000000000000000000000000000008152600401612f1a90616716565b60405180910390fd5b80609b819055507f2644fd26359c107ff7991b6dfc36ce902b334ce4e3891bbecacc5922aa620efa81604051612f5991906168f6565b60405180910390a150565b609d60149054906101000a900460ff1615612fb4576040517f08c379a0000000000000000000000000000000000000000000000000000000008152600401612fab906167d6565b60405180910390fd5b612fbc614120565b73ffffffffffffffffffffffffffffffffffffffff168773ffffffffffffffffffffffffffffffffffffffff16636352211e886040518263ffffffff1660e01b815260040161300b91906168f6565b60206040518083038186803b15801561302357600080fd5b505afa158015613037573d6000803e3d6000fd5b505050506040513d601f19601f8201168201806040525081019061305b9190615828565b73ffffffffffffffffffffffffffffffffffffffff1614801561310c57508673ffffffffffffffffffffffffffffffffffffffff1663e985e9c561309d614120565b306040518363ffffffff1660e01b81526004016130bb9291906161bd565b60206040518083038186803b1580156130d357600080fd5b505afa1580156130e7573d6000803e3d6000fd5b505050506040513d601f19601f8201168201806040525081019061310b91906159b7565b5b61314b576040517f08c379a000000000000000000000000000000000000000000000000000000000815260040161314290616816565b60405180910390fd5b600073ffffffffffffffffffffffffffffffffffffffff168573ffffffffffffffffffffffffffffffffffffffff1614806133845750600073ffffffffffffffffffffffffffffffffffffffff16609d60009054906101000a900473ffffffffffffffffffffffffffffffffffffffff1673ffffffffffffffffffffffffffffffffffffffff16639d23c4c76040518163ffffffff1660e01b815260040160206040518083038186803b15801561320157600080fd5b505afa158015613215573d6000803e3d6000fd5b505050506040513d601f19601f820116820180604052508101906132399190615828565b73ffffffffffffffffffffffffffffffffffffffff16141580156133835750609d60009054906101000a900473ffffffffffffffffffffffffffffffffffffffff1673ffffffffffffffffffffffffffffffffffffffff16639d23c4c76040518163ffffffff1660e01b815260040160206040518083038186803b1580156132c057600080fd5b505afa1580156132d4573d6000803e3d6000fd5b505050506040513d601f19601f820116820180604052508101906132f89190615828565b73ffffffffffffffffffffffffffffffffffffffff166398afdfe3866040518263ffffffff1660e01b81526004016133309190616127565b602060405180830381600087803b15801561334a57600080fd5b505af115801561335e573d6000803e3d6000fd5b505050506040513d601f19601f8201168201806040525081019061338291906159b7565b5b5b6133c3576040517f08c379a00000000000000000000000000000000000000000000000000000000081526004016133ba90616856565b60405180910390fd5b62278d00836133d2919061692d565b811115613414576040517f08c379a000000000000000000000000000000000000000000000000000000000815260040161340b90616576565b60405180910390fd5b61342387878787878787614b21565b50505050505050565b609d60149054906101000a900460ff1681565b60026065541415613485576040517f08c379a000000000000000000000000000000000000000000000000000000000815260040161347c906168b6565b60405180910390fd5b60026065819055506000609760008473ffffffffffffffffffffffffffffffffffffffff1673ffffffffffffffffffffffffffffffffffffffff1681526020019081526020016000206000838152602001908152602001600020905060008160000160009054906101000a900473ffffffffffffffffffffffffffffffffffffffff1690503073ffffffffffffffffffffffffffffffffffffffff168473ffffffffffffffffffffffffffffffffffffffff16636352211e856040518263ffffffff1660e01b815260040161355a91906168f6565b60206040518083038186803b15801561357257600080fd5b505afa158015613586573d6000803e3d6000fd5b505050506040513d601f19601f820116820180604052508101906135aa9190615828565b73ffffffffffffffffffffffffffffffffffffffff1614613600576040517f08c379a00000000000000000000000000000000000000000000000000000000081526004016135f790616676565b60405180910390fd5b6000826005015411613647576040517f08c379a000000000000000000000000000000000000000000000000000000000815260040161363e90616636565b60405180910390fd5b8160050154613654614128565b11613694576040517f08c379a000000000000000000000000000000000000000000000000000000000815260040161368b90616796565b60405180910390fd5b8160060160009054906101000a900460ff16156136e6576040517f08c379a00000000000000000000000000000000000000000000000000000000081526004016136dd90616756565b60405180910390fd5b6000609860008673ffffffffffffffffffffffffffffffffffffffff1673ffffffffffffffffffffffffffffffffffffffff1681526020019081526020016000206000858152602001908152602001600020905060008160000160009054906101000a900473ffffffffffffffffffffffffffffffffffffffff1690506000826001015490508173ffffffffffffffffffffffffffffffffffffffff1661378b614120565b73ffffffffffffffffffffffffffffffffffffffff1614806137df57508373ffffffffffffffffffffffffffffffffffffffff166137c7614120565b73ffffffffffffffffffffffffffffffffffffffff16145b61381e576040517f08c379a000000000000000000000000000000000000000000000000000000000815260040161381590616436565b60405180910390fd5b600073ffffffffffffffffffffffffffffffffffffffff168273ffffffffffffffffffffffffffffffffffffffff16141561388e576040517f08c379a0000000000000000000000000000000000000000000000000000000008152600401613885906164b6565b60405180910390fd5b846003015481106138d4576040517f08c379a00000000000000000000000000000000000000000000000000000000081526004016138cb90616416565b60405180910390fd5b600073ffffffffffffffffffffffffffffffffffffffff168273ffffffffffffffffffffffffffffffffffffffff161461399f5761391487878484614f3e565b609860008873ffffffffffffffffffffffffffffffffffffffff1673ffffffffffffffffffffffffffffffffffffffff1681526020019081526020016000206000878152602001908152602001600020600080820160006101000a81549073ffffffffffffffffffffffffffffffffffffffff02191690556001820160009055600282016000905550505b609760008873ffffffffffffffffffffffffffffffffffffffff1673ffffffffffffffffffffffffffffffffffffffff1681526020019081526020016000206000878152602001908152602001600020600080820160006101000a81549073ffffffffffffffffffffffffffffffffffffffff02191690556001820160006101000a81549073ffffffffffffffffffffffffffffffffffffffff021916905560028201600090556003820160009055600482016000905560058201600090556006820160006101000a81549060ff021916905550508673ffffffffffffffffffffffffffffffffffffffff166342842e0e8873ffffffffffffffffffffffffffffffffffffffff16636352211e896040518263ffffffff1660e01b8152600401613ac991906168f6565b60206040518083038186803b158015613ae157600080fd5b505afa158015613af5573d6000803e3d6000fd5b505050506040513d601f19601f82011682018060405250810190613b199190615828565b86896040518463ffffffff1660e01b8152600401613b399392919061622b565b600060405180830381600087803b158015613b5357600080fd5b505af1158015613b67573d6000803e3d6000fd5b50505050858773ffffffffffffffffffffffffffffffffffffffff167f018b64b6242d32aa550e95d78985b938d71af5b3f10827b0683f55da1639304860405160405180910390a3505050505060016065819055505050565b600060019054906101000a900460ff1680613be6575060008054906101000a900460ff16155b613c25576040517f08c379a0000000000000000000000000000000000000000000000000000000008152600401613c1c906166d6565b60405180910390fd5b60008060019054906101000a900460ff161590508015613c75576001600060016101000a81548160ff02191690831515021790555060016000806101000a81548160ff0219169083151502179055505b600073ffffffffffffffffffffffffffffffffffffffff168273ffffffffffffffffffffffffffffffffffffffff161415613ce5576040517f08c379a0000000000000000000000000000000000000000000000000000000008152600401613cdc90616456565b60405180910390fd5b81609c60006101000a81548173ffffffffffffffffffffffffffffffffffffffff021916908373ffffffffffffffffffffffffffffffffffffffff1602179055507f237706cf61496186f74c42dca1d920d0abb19e2ea389fa58fe9906377aa75a2f60405160405180910390a1613d5a6152bb565b613d626153a4565b8015613d835760008060016101000a81548160ff0219169083151502179055505b5050565b609c60009054906101000a900473ffffffffffffffffffffffffffffffffffffffff1681565b613db5614120565b73ffffffffffffffffffffffffffffffffffffffff16613dd3612ad3565b73ffffffffffffffffffffffffffffffffffffffff1614613e29576040517f08c379a0000000000000000000000000000000000000000000000000000000008152600401613e2090616716565b60405180910390fd5b600073ffffffffffffffffffffffffffffffffffffffff168173ffffffffffffffffffffffffffffffffffffffff161415613e99576040517f08c379a0000000000000000000000000000000000000000000000000000000008152600401613e9090616516565b60405180910390fd5b613ea2816146d4565b50565b609d60009054906101000a900473ffffffffffffffffffffffffffffffffffffffff1681565b613ed3614120565b73ffffffffffffffffffffffffffffffffffffffff16613ef1612ad3565b73ffffffffffffffffffffffffffffffffffffffff1614613f47576040517f08c379a0000000000000000000000000000000000000000000000000000000008152600401613f3e90616716565b60405180910390fd5b600073ffffffffffffffffffffffffffffffffffffffff168173ffffffffffffffffffffffffffffffffffffffff161415613fb7576040517f08c379a0000000000000000000000000000000000000000000000000000000008152600401613fae90616736565b60405180910390fd5b80609c60006101000a81548173ffffffffffffffffffffffffffffffffffffffff021916908373ffffffffffffffffffffffffffffffffffffffff1602179055507fe57e7c1f36cc83fade34e32351e6eee7eb9da532662b1b5da10c631e8222aca7816040516140279190616142565b60405180910390a150565b61403a614120565b73ffffffffffffffffffffffffffffffffffffffff16614058612ad3565b73ffffffffffffffffffffffffffffffffffffffff16146140ae576040517f08c379a00000000000000000000000000000000000000000000000000000000081526004016140a590616716565b60405180910390fd5b609d60149054906101000a900460ff1615609d60146101000a81548160ff0219169083151502179055507f9077d36bc00859b5c3f320310707208543dd35092cb0a0fe117d0c6a558b148b609d60149054906101000a900460ff1660405161411691906163a0565b60405180910390a1565b600033905090565b600042905090565b609d60149054906101000a900460ff1615614180576040517f08c379a0000000000000000000000000000000000000000000000000000000008152600401614177906167d6565b60405180910390fd5b6000609760008573ffffffffffffffffffffffffffffffffffffffff1673ffffffffffffffffffffffffffffffffffffffff1681526020019081526020016000206000848152602001908152602001600020905080600301548160020154141561422c57806003015482101561422b576040517f08c379a0000000000000000000000000000000000000000000000000000000008152600401614222906163d6565b60405180910390fd5b5b6000609860008673ffffffffffffffffffffffffffffffffffffffff1673ffffffffffffffffffffffffffffffffffffffff16815260200190815260200160002060008581526020019081526020016000209050600061429b609954836001015461548590919063ffffffff16565b90508084116142df576040517f08c379a00000000000000000000000000000000000000000000000000000000081526004016142d6906163f6565b60405180910390fd5b3073ffffffffffffffffffffffffffffffffffffffff168673ffffffffffffffffffffffffffffffffffffffff16636352211e876040518263ffffffff1660e01b815260040161432f91906168f6565b60206040518083038186803b15801561434757600080fd5b505afa15801561435b573d6000803e3d6000fd5b505050506040513d601f19601f8201168201806040525081019061437f9190615828565b73ffffffffffffffffffffffffffffffffffffffff16146143d5576040517f08c379a00000000000000000000000000000000000000000000000000000000081526004016143cc90616676565b60405180910390fd5b600073ffffffffffffffffffffffffffffffffffffffff168360010160009054906101000a900473ffffffffffffffffffffffffffffffffffffffff1673ffffffffffffffffffffffffffffffffffffffff161461452d5760008360010160009054906101000a900473ffffffffffffffffffffffffffffffffffffffff1690508073ffffffffffffffffffffffffffffffffffffffff166323b872dd61447a614120565b30886040518463ffffffff1660e01b815260040161449a9392919061622b565b602060405180830381600087803b1580156144b457600080fd5b505af11580156144c8573d6000803e3d6000fd5b505050506040513d601f19601f820116820180604052508101906144ec91906159b7565b61452b576040517f08c379a000000000000000000000000000000000000000000000000000000000815260040161452290616776565b60405180910390fd5b505b600073ffffffffffffffffffffffffffffffffffffffff168260000160009054906101000a900473ffffffffffffffffffffffffffffffffffffffff1673ffffffffffffffffffffffffffffffffffffffff16146145ba576145b986868460000160009054906101000a900473ffffffffffffffffffffffffffffffffffffffff168560010154614f3e565b5b6145c2614120565b8260000160006101000a81548173ffffffffffffffffffffffffffffffffffffffff021916908373ffffffffffffffffffffffffffffffffffffffff160217905550838260010181905550614615614128565b8260020181905550614625614120565b73ffffffffffffffffffffffffffffffffffffffff16858773ffffffffffffffffffffffffffffffffffffffff167f0158f5674dc243762459b88cfc91b10d2d1ef9d40821cca978c2b680aa4446828760405161468291906168f6565b60405180910390a4505050505050565b600081836146a09190616a0e565b905092915050565b600081836146b691906169b4565b905092915050565b600081836146cc9190616983565b905092915050565b6000603360009054906101000a900473ffffffffffffffffffffffffffffffffffffffff16905081603360006101000a81548173ffffffffffffffffffffffffffffffffffffffff021916908373ffffffffffffffffffffffffffffffffffffffff1602179055508173ffffffffffffffffffffffffffffffffffffffff168173ffffffffffffffffffffffffffffffffffffffff167f8be0079c531659141344cd1fd0a4f28419497f9722a3daafe3b4186f6b6457e060405160405180910390a35050565b6000609860008473ffffffffffffffffffffffffffffffffffffffff1673ffffffffffffffffffffffffffffffffffffffff16815260200190815260200160002060008381526020019081526020016000209050600073ffffffffffffffffffffffffffffffffffffffff168160000160009054906101000a900473ffffffffffffffffffffffffffffffffffffffff1673ffffffffffffffffffffffffffffffffffffffff16146149055761487a83838360000160009054906101000a900473ffffffffffffffffffffffffffffffffffffffff168460010154614f3e565b609860008473ffffffffffffffffffffffffffffffffffffffff1673ffffffffffffffffffffffffffffffffffffffff1681526020019081526020016000206000838152602001908152602001600020600080820160006101000a81549073ffffffffffffffffffffffffffffffffffffffff02191690556001820160009055600282016000905550505b609760008473ffffffffffffffffffffffffffffffffffffffff1673ffffffffffffffffffffffffffffffffffffffff1681526020019081526020016000206000838152602001908152602001600020600080820160006101000a81549073ffffffffffffffffffffffffffffffffffffffff02191690556001820160006101000a81549073ffffffffffffffffffffffffffffffffffffffff021916905560028201600090556003820160009055600482016000905560058201600090556006820160006101000a81549060ff021916905550508273ffffffffffffffffffffffffffffffffffffffff166342842e0e8473ffffffffffffffffffffffffffffffffffffffff16636352211e856040518263ffffffff1660e01b8152600401614a2f91906168f6565b60206040518083038186803b158015614a4757600080fd5b505afa158015614a5b573d6000803e3d6000fd5b505050506040513d601f19601f82011682018060405250810190614a7f9190615828565b614a87614120565b856040518463ffffffff1660e01b8152600401614aa69392919061622b565b600060405180830381600087803b158015614ac057600080fd5b505af1158015614ad4573d6000803e3d6000fd5b50505050818373ffffffffffffffffffffffffffffffffffffffff167f018b64b6242d32aa550e95d78985b938d71af5b3f10827b0683f55da1639304860405160405180910390a3505050565b6000609760008973ffffffffffffffffffffffffffffffffffffffff1673ffffffffffffffffffffffffffffffffffffffff16815260200190815260200160002060008881526020019081526020016000206005015414614bb7576040517f08c379a0000000000000000000000000000000000000000000000000000000008152600401614bae90616696565b60405180910390fd5b61012c83614bc5919061692d565b811015614c07576040517f08c379a0000000000000000000000000000000000000000000000000000000008152600401614bfe906165d6565b60405180910390fd5b614c0f614128565b8311614c50576040517f08c379a0000000000000000000000000000000000000000000000000000000008152600401614c47906164f6565b60405180910390fd5b8673ffffffffffffffffffffffffffffffffffffffff166342842e0e8873ffffffffffffffffffffffffffffffffffffffff16636352211e896040518263ffffffff1660e01b8152600401614ca591906168f6565b60206040518083038186803b158015614cbd57600080fd5b505afa158015614cd1573d6000803e3d6000fd5b505050506040513d601f19601f82011682018060405250810190614cf59190615828565b30896040518463ffffffff1660e01b8152600401614d159392919061622b565b600060405180830381600087803b158015614d2f57600080fd5b505af1158015614d43573d6000803e3d6000fd5b5050505060008215614d53578490505b6040518060e00160405280614d66614120565b73ffffffffffffffffffffffffffffffffffffffff1681526020018773ffffffffffffffffffffffffffffffffffffffff16815260200182815260200186815260200185815260200183815260200160001515815250609760008a73ffffffffffffffffffffffffffffffffffffffff1673ffffffffffffffffffffffffffffffffffffffff168152602001908152602001600020600089815260200190815260200160002060008201518160000160006101000a81548173ffffffffffffffffffffffffffffffffffffffff021916908373ffffffffffffffffffffffffffffffffffffffff16021790555060208201518160010160006101000a81548173ffffffffffffffffffffffffffffffffffffffff021916908373ffffffffffffffffffffffffffffffffffffffff16021790555060408201518160020155606082015181600301556080820151816004015560a0820151816005015560c08201518160060160006101000a81548160ff021916908315150217905550905050868873ffffffffffffffffffffffffffffffffffffffff167fca437d90ed6373b827a01275bd2fdfe7e6406d7ecd400662ee0533d3546ab17a88604051614f2c9190616127565b60405180910390a35050505050505050565b6000609760008673ffffffffffffffffffffffffffffffffffffffff1673ffffffffffffffffffffffffffffffffffffffff16815260200190815260200160002060008581526020019081526020016000206040518060e00160405290816000820160009054906101000a900473ffffffffffffffffffffffffffffffffffffffff1673ffffffffffffffffffffffffffffffffffffffff1673ffffffffffffffffffffffffffffffffffffffff1681526020016001820160009054906101000a900473ffffffffffffffffffffffffffffffffffffffff1673ffffffffffffffffffffffffffffffffffffffff1673ffffffffffffffffffffffffffffffffffffffff168152602001600282015481526020016003820154815260200160048201548152602001600582015481526020016006820160009054906101000a900460ff1615151515815250509050600073ffffffffffffffffffffffffffffffffffffffff16816020015173ffffffffffffffffffffffffffffffffffffffff1614156151775760008373ffffffffffffffffffffffffffffffffffffffff16836040516150eb90616112565b60006040518083038185875af1925050503d8060008114615128576040519150601f19603f3d011682016040523d82523d6000602084013e61512d565b606091505b5050905080615171576040517f08c379a0000000000000000000000000000000000000000000000000000000008152600401615168906165b6565b60405180910390fd5b5061524e565b6000816020015190508073ffffffffffffffffffffffffffffffffffffffff1663a9059cbb85856040518363ffffffff1660e01b81526004016151bb92919061615d565b602060405180830381600087803b1580156151d557600080fd5b505af11580156151e9573d6000803e3d6000fd5b505050506040513d601f19601f8201168201806040525081019061520d91906159b7565b61524c576040517f08c379a0000000000000000000000000000000000000000000000000000000008152600401615243906165b6565b60405180910390fd5b505b8273ffffffffffffffffffffffffffffffffffffffff16848673ffffffffffffffffffffffffffffffffffffffff167f90e20d1ba82eaa07a212267355536f76bc83bf91c81fd41b74283c4082e76952856040516152ac91906168f6565b60405180910390a45050505050565b600060019054906101000a900460ff16806152e1575060008054906101000a900460ff16155b615320576040517f08c379a0000000000000000000000000000000000000000000000000000000008152600401615317906166d6565b60405180910390fd5b60008060019054906101000a900460ff161590508015615370576001600060016101000a81548160ff02191690831515021790555060016000806101000a81548160ff0219169083151502179055505b61537861549b565b615380615574565b80156153a15760008060016101000a81548160ff0219169083151502179055505b50565b600060019054906101000a900460ff16806153ca575060008054906101000a900460ff16155b615409576040517f08c379a0000000000000000000000000000000000000000000000000000000008152600401615400906166d6565b60405180910390fd5b60008060019054906101000a900460ff161590508015615459576001600060016101000a81548160ff02191690831515021790555060016000806101000a81548160ff0219169083151502179055505b61546161565d565b80156154825760008060016101000a81548160ff0219169083151502179055505b50565b60008183615493919061692d565b905092915050565b600060019054906101000a900460ff16806154c1575060008054906101000a900460ff16155b615500576040517f08c379a00000000000000000000000000000000000000000000000000000000081526004016154f7906166d6565b60405180910390fd5b60008060019054906101000a900460ff161590508015615550576001600060016101000a81548160ff02191690831515021790555060016000806101000a81548160ff0219169083151502179055505b80156155715760008060016101000a81548160ff0219169083151502179055505b50565b600060019054906101000a900460ff168061559a575060008054906101000a900460ff16155b6155d9576040517f08c379a00000000000000000000000000000000000000000000000000000000081526004016155d0906166d6565b60405180910390fd5b60008060019054906101000a900460ff161590508015615629576001600060016101000a81548160ff02191690831515021790555060016000806101000a81548160ff0219169083151502179055505b615639615634614120565b6146d4565b801561565a5760008060016101000a81548160ff0219169083151502179055505b50565b600060019054906101000a900460ff1680615683575060008054906101000a900460ff16155b6156c2576040517f08c379a00000000000000000000000000000000000000000000000000000000081526004016156b9906166d6565b60405180910390fd5b60008060019054906101000a900460ff161590508015615712576001600060016101000a81548160ff02191690831515021790555060016000806101000a81548160ff0219169083151502179055505b6001606581905550801561573b5760008060016101000a81548160ff0219169083151502179055505b50565b60008135905061574d816174c5565b92915050565b600081519050615762816174c5565b92915050565b600081359050615777816174dc565b92915050565b60008135905061578c816174f3565b92915050565b6000815190506157a1816174f3565b92915050565b6000815190506157b68161750a565b92915050565b6000815190506157cb81617521565b92915050565b6000813590506157e081617538565b92915050565b6000815190506157f581617538565b92915050565b60006020828403121561581157615810616b5a565b5b600061581f8482850161573e565b91505092915050565b60006020828403121561583e5761583d616b5a565b5b600061584c84828501615753565b91505092915050565b60006020828403121561586b5761586a616b5a565b5b600061587984828501615768565b91505092915050565b6000806040838503121561589957615898616b5a565b5b60006158a78582860161573e565b92505060206158b8858286016157d1565b9150509250929050565b600080600080600080600060e0888a0312156158e1576158e0616b5a565b5b60006158ef8a828b0161573e565b97505060206159008a828b016157d1565b96505060406159118a828b0161573e565b95505060606159228a828b016157d1565b94505060806159338a828b016157d1565b93505060a06159448a828b0161577d565b92505060c06159558a828b016157d1565b91505092959891949750929550565b60008060006060848603121561597d5761597c616b5a565b5b600061598b8682870161573e565b935050602061599c868287016157d1565b92505060406159ad868287016157d1565b9150509250925092565b6000602082840312156159cd576159cc616b5a565b5b60006159db84828501615792565b91505092915050565b6000602082840312156159fa576159f9616b5a565b5b6000615a08848285016157a7565b91505092915050565b600060208284031215615a2757615a26616b5a565b5b6000615a35848285016157bc565b91505092915050565b600080600060608486031215615a5757615a56616b5a565b5b6000615a65868287016157bc565b9350506020615a7686828701615753565b9250506040615a8786828701615753565b9150509250925092565b600060208284031215615aa757615aa6616b5a565b5b6000615ab5848285016157d1565b91505092915050565b600060208284031215615ad457615ad3616b5a565b5b6000615ae2848285016157e6565b91505092915050565b615af481616ab4565b82525050565b615b0381616a54565b82525050565b615b1281616a42565b82525050565b615b2181616a66565b82525050565b615b3081616ac6565b82525050565b615b3f81616a72565b82525050565b6000615b5260268361691c565b9150615b5d82616b5f565b604082019050919050565b6000615b75601f8361691c565b9150615b8082616bae565b602082019050919050565b6000615b98601e8361691c565b9150615ba382616bd7565b602082019050919050565b6000615bbb60308361691c565b9150615bc682616c00565b604082019050919050565b6000615bde602d8361691c565b9150615be982616c4f565b604082019050919050565b6000615c01600f8361691c565b9150615c0c82616c9e565b602082019050919050565b6000615c2460288361691c565b9150615c2f82616cc7565b604082019050919050565b6000615c47600c8361691c565b9150615c5282616d16565b602082019050919050565b6000615c6a60118361691c565b9150615c7582616d3f565b602082019050919050565b6000615c8d60128361691c565b9150615c9882616d68565b602082019050919050565b6000615cb060268361691c565b9150615cbb82616d91565b604082019050919050565b6000615cd3600f8361691c565b9150615cde82616de0565b602082019050919050565b6000615cf6601b8361691c565b9150615d0182616e09565b602082019050919050565b6000615d1960238361691c565b9150615d2482616e32565b604082019050919050565b6000615d3c601c8361691c565b9150615d4782616e81565b602082019050919050565b6000615d5f60208361691c565b9150615d6a82616eaa565b602082019050919050565b6000615d8260328361691c565b9150615d8d82616ed3565b604082019050919050565b6000615da5602d8361691c565b9150615db082616f22565b604082019050919050565b6000615dc860338361691c565b9150615dd382616f71565b604082019050919050565b6000615deb60118361691c565b9150615df682616fc0565b602082019050919050565b6000615e0e602c8361691c565b9150615e1982616fe9565b604082019050919050565b6000615e3160248361691c565b9150615e3c82617038565b604082019050919050565b6000615e5460178361691c565b9150615e5f82617087565b602082019050919050565b6000615e7760148361691c565b9150615e82826170b0565b602082019050919050565b6000615e9a602e8361691c565b9150615ea5826170d9565b604082019050919050565b6000615ebd60188361691c565b9150615ec882617128565b602082019050919050565b6000615ee060208361691c565b9150615eeb82617151565b602082019050919050565b6000615f03600c8361691c565b9150615f0e8261717a565b602082019050919050565b6000615f2660188361691c565b9150615f31826171a3565b602082019050919050565b6000615f4960248361691c565b9150615f54826171cc565b604082019050919050565b6000615f6c60118361691c565b9150615f778261721b565b602082019050919050565b6000615f8f600083616911565b9150615f9a82617244565b600082019050919050565b6000615fb260218361691c565b9150615fbd82617247565b604082019050919050565b6000615fd5600f8361691c565b9150615fe082617296565b602082019050919050565b6000615ff860218361691c565b9150616003826172bf565b604082019050919050565b600061601b60268361691c565b91506160268261730e565b604082019050919050565b600061603e60238361691c565b91506160498261735d565b604082019050919050565b600061606160118361691c565b915061606c826173ac565b602082019050919050565b6000616084602c8361691c565b915061608f826173d5565b604082019050919050565b60006160a760258361691c565b91506160b282617424565b604082019050919050565b60006160ca601f8361691c565b91506160d582617473565b602082019050919050565b60006160ed60148361691c565b91506160f88261749c565b602082019050919050565b61610c81616aaa565b82525050565b600061611d82615f82565b9150819050919050565b600060208201905061613c6000830184615b09565b92915050565b60006020820190506161576000830184615afa565b92915050565b60006040820190506161726000830185615aeb565b61617f6020830184616103565b9392505050565b600060608201905061619b6000830186615afa565b6161a86020830185616103565b6161b56040830184616103565b949350505050565b60006040820190506161d26000830185615b09565b6161df6020830184615b09565b9392505050565b60006080820190506161fb6000830187615b09565b6162086020830186615b09565b6162156040830185615b36565b6162226060830184616103565b95945050505050565b60006060820190506162406000830186615b09565b61624d6020830185615b09565b61625a6040830184616103565b949350505050565b600060e082019050616277600083018a615b09565b6162846020830189615b09565b6162916040830188616103565b61629e6060830187616103565b6162ab6080830186616103565b6162b860a0830185615b18565b6162c560c0830184616103565b98975050505050505050565b600060e0820190506162e6600083018a615b09565b6162f36020830189615b09565b6163006040830188616103565b61630d6060830187616103565b61631a6080830186616103565b61632760a0830185616103565b61633460c0830184615b18565b98975050505050505050565b60006040820190506163556000830185615b09565b6163626020830184616103565b9392505050565b600060608201905061637e6000830186615b09565b61638b6020830185616103565b6163986040830184616103565b949350505050565b60006020820190506163b56000830184615b18565b92915050565b60006020820190506163d06000830184615b27565b92915050565b600060208201905081810360008301526163ef81615b45565b9050919050565b6000602082019050818103600083015261640f81615b68565b9050919050565b6000602082019050818103600083015261642f81615b8b565b9050919050565b6000602082019050818103600083015261644f81615bae565b9050919050565b6000602082019050818103600083015261646f81615bd1565b9050919050565b6000602082019050818103600083015261648f81615bf4565b9050919050565b600060208201905081810360008301526164af81615c17565b9050919050565b600060208201905081810360008301526164cf81615c3a565b9050919050565b600060208201905081810360008301526164ef81615c5d565b9050919050565b6000602082019050818103600083015261650f81615c80565b9050919050565b6000602082019050818103600083015261652f81615ca3565b9050919050565b6000602082019050818103600083015261654f81615cc6565b9050919050565b6000602082019050818103600083015261656f81615ce9565b9050919050565b6000602082019050818103600083015261658f81615d0c565b9050919050565b600060208201905081810360008301526165af81615d2f565b9050919050565b600060208201905081810360008301526165cf81615d52565b9050919050565b600060208201905081810360008301526165ef81615d75565b9050919050565b6000602082019050818103600083015261660f81615d98565b9050919050565b6000602082019050818103600083015261662f81615dbb565b9050919050565b6000602082019050818103600083015261664f81615dde565b9050919050565b6000602082019050818103600083015261666f81615e01565b9050919050565b6000602082019050818103600083015261668f81615e24565b9050919050565b600060208201905081810360008301526166af81615e47565b9050919050565b600060208201905081810360008301526166cf81615e6a565b9050919050565b600060208201905081810360008301526166ef81615e8d565b9050919050565b6000602082019050818103600083015261670f81615eb0565b9050919050565b6000602082019050818103600083015261672f81615ed3565b9050919050565b6000602082019050818103600083015261674f81615ef6565b9050919050565b6000602082019050818103600083015261676f81615f19565b9050919050565b6000602082019050818103600083015261678f81615f3c565b9050919050565b600060208201905081810360008301526167af81615f5f565b9050919050565b600060208201905081810360008301526167cf81615fa5565b9050919050565b600060208201905081810360008301526167ef81615fc8565b9050919050565b6000602082019050818103600083015261680f81615feb565b9050919050565b6000602082019050818103600083015261682f8161600e565b9050919050565b6000602082019050818103600083015261684f81616031565b9050919050565b6000602082019050818103600083015261686f81616054565b9050919050565b6000602082019050818103600083015261688f81616077565b9050919050565b600060208201905081810360008301526168af8161609a565b9050919050565b600060208201905081810360008301526168cf816160bd565b9050919050565b600060208201905081810360008301526168ef816160e0565b9050919050565b600060208201905061690b6000830184616103565b92915050565b600081905092915050565b600082825260208201905092915050565b600061693882616aaa565b915061694383616aaa565b9250827fffffffffffffffffffffffffffffffffffffffffffffffffffffffffffffffff0382111561697857616977616afc565b5b828201905092915050565b600061698e82616aaa565b915061699983616aaa565b9250826169a9576169a8616b2b565b5b828204905092915050565b60006169bf82616aaa565b91506169ca83616aaa565b9250817fffffffffffffffffffffffffffffffffffffffffffffffffffffffffffffffff0483118215151615616a0357616a02616afc565b5b828202905092915050565b6000616a1982616aaa565b9150616a2483616aaa565b925082821015616a3757616a36616afc565b5b828203905092915050565b6000616a4d82616a8a565b9050919050565b6000616a5f82616a8a565b9050919050565b60008115159050919050565b6000819050919050565b600061ffff82169050919050565b600073ffffffffffffffffffffffffffffffffffffffff82169050919050565b6000819050919050565b6000616abf82616ad8565b9050919050565b6000616ad182616ad8565b9050919050565b6000616ae382616aea565b9050919050565b6000616af582616a8a565b9050919050565b7f4e487b7100000000000000000000000000000000000000000000000000000000600052601160045260246000fd5b7f4e487b7100000000000000000000000000000000000000000000000000000000600052601260045260246000fd5b600080fd5b7f6269642063616e6e6f74206265206c6f776572207468616e207265736572766560008201527f2070726963650000000000000000000000000000000000000000000000000000602082015250565b7f6661696c656420746f206f757462696420686967686573742062696464657200600082015250565b7f6869676865737420626964206973203e3d207265736572766550726963650000600082015250565b7f5f6d736753656e6465722829206d7573742062652061756374696f6e20746f7060008201527f426964646572206f722073656c6c657200000000000000000000000000000000602082015250565b7f46616e746f6d41756374696f6e3a20496e76616c696420506c6174666f726d2060008201527f46656520526563697069656e7400000000000000000000000000000000000000602082015250565b7f496e76616c696420616464726573730000000000000000000000000000000000600082015250565b7f6661696c656420746f2073656e6420746865206f776e6572207468656972207260008201527f6f79616c74696573000000000000000000000000000000000000000000000000602082015250565b7f6e6f206f70656e20626964730000000000000000000000000000000000000000600082015250565b7f4e6f2061756374696f6e20657869737473000000000000000000000000000000600082015250565b7f696e76616c69642073746172742074696d650000000000000000000000000000600082015250565b7f4f776e61626c653a206e6577206f776e657220697320746865207a65726f206160008201527f6464726573730000000000000000000000000000000000000000000000000000602082015250565b7f5472616e73666572206661696c65640000000000000000000000000000000000600082015250565b7f6661696c656420746f2073656e6420706c6174666f726d206665650000000000600082015250565b7f41756374696f6e2074696d652065786365656473206d6178696d756d206c656e60008201527f6774680000000000000000000000000000000000000000000000000000000000602082015250565b7f6661696c656420746f2073656e642074686520726f79616c7469657300000000600082015250565b7f6661696c656420746f20726566756e642070726576696f757320626964646572600082015250565b7f656e642074696d65206d7573742062652067726561746572207468616e20737460008201527f617274202862792035206d696e75746573290000000000000000000000000000602082015250565b7f5f6d736753656e6465722829206d7573742062652061756374696f6e2077696e60008201527f6e6572206f722073656c6c657200000000000000000000000000000000000000602082015250565b7f53656e646572206d757374206265206974656d206f776e657220616e64204e4660008201527f54206d75737420626520696e20657363726f7700000000000000000000000000602082015250565b7f6e6f2061756374696f6e20657869737473000000000000000000000000000000600082015250565b7f6661696c656420746f2073656e6420746865206f776e6572207468652061756360008201527f74696f6e2062616c616e63650000000000000000000000000000000000000000602082015250565b7f61646472657373287468697329206d75737420626520746865206974656d206f60008201527f776e657200000000000000000000000000000000000000000000000000000000602082015250565b7f61756374696f6e20616c72656164792073746172746564000000000000000000600082015250565b7f61756374696f6e206e6f7420617070726f766564000000000000000000000000600082015250565b7f496e697469616c697a61626c653a20636f6e747261637420697320616c72656160008201527f647920696e697469616c697a6564000000000000000000000000000000000000602082015250565b7f41756374696f6e20616c726561647920726573756c7465640000000000000000600082015250565b7f4f776e61626c653a2063616c6c6572206973206e6f7420746865206f776e6572600082015250565b7f7a65726f20616464726573730000000000000000000000000000000000000000600082015250565b7f61756374696f6e20616c726561647920726573756c7465640000000000000000600082015250565b7f696e73756666696369656e742062616c616e6365206f72206e6f74206170707260008201527f6f76656400000000000000000000000000000000000000000000000000000000602082015250565b7f61756374696f6e206e6f7420656e646564000000000000000000000000000000600082015250565b50565b7f68696768657374206269642069732062656c6f7720726573657276655072696360008201527f6500000000000000000000000000000000000000000000000000000000000000602082015250565b7f636f6e7472616374207061757365640000000000000000000000000000000000600082015250565b7f4552433230206d6574686f64207573656420666f722046544d2061756374696f60008201527f6e00000000000000000000000000000000000000000000000000000000000000602082015250565b7f6e6f74206f776e657220616e64206f7220636f6e7472616374206e6f7420617060008201527f70726f7665640000000000000000000000000000000000000000000000000000602082015250565b7f526573657276652070726963652063616e206f6e6c792062652064656372656160008201527f7365640000000000000000000000000000000000000000000000000000000000602082015250565b7f696e76616c69642070617920746f6b656e000000000000000000000000000000600082015250565b7f48696768657374206269642069732063757272656e746c792061626f7665207260008201527f6573657276652070726963650000000000000000000000000000000000000000602082015250565b7f62696464696e67206f757473696465206f66207468652061756374696f6e207760008201527f696e646f77000000000000000000000000000000000000000000000000000000602082015250565b7f5265656e7472616e637947756172643a207265656e7472616e742063616c6c00600082015250565b7f73656e646572206d757374206265206f776e6572000000000000000000000000600082015250565b6174ce81616a42565b81146174d957600080fd5b50565b6174e581616a54565b81146174f057600080fd5b50565b6174fc81616a66565b811461750757600080fd5b50565b61751381616a72565b811461751e57600080fd5b50565b61752a81616a7c565b811461753557600080fd5b50565b61754181616aaa565b811461754c57600080fd5b5056fea264697066735822122024cd1d329cbeb94184176413e07a8af643665db9c952da9fe69f25a2b938ff9464736f6c63430008070033",
  "immutableReferences": {},
  "source": "// SPDX-License-Identifier: MIT\r\n\r\npragma solidity ^0.8.0;\r\n\r\nimport \"@openzeppelin/contracts/utils/math/SafeMath.sol\";\r\nimport \"@openzeppelin/contracts/token/ERC20/IERC20.sol\";\r\nimport \"@openzeppelin/contracts/token/ERC20//utils/SafeERC20.sol\";\r\nimport \"@openzeppelin/contracts/token/ERC721/ERC721.sol\";\r\nimport \"@openzeppelin/contracts/token/ERC721/IERC721.sol\";\r\nimport \"@openzeppelin/contracts/token/ERC721/IERC721Receiver.sol\";\r\nimport \"@openzeppelin/contracts/token/ERC721/utils/ERC721Holder.sol\";\r\nimport \"@openzeppelin/contracts-upgradeable/access/OwnableUpgradeable.sol\";\r\nimport \"@openzeppelin/contracts-upgradeable/utils/AddressUpgradeable.sol\";\r\nimport \"@openzeppelin/contracts-upgradeable/security/ReentrancyGuardUpgradeable.sol\";\r\n\r\ninterface IFantomAddressRegistry {\r\n    function artion() external view returns (address);\r\n\r\n    function marketplace() external view returns (address);\r\n\r\n    function bundleMarketplace() external view returns (address);\r\n\r\n    function tokenRegistry() external view returns (address);\r\n}\r\n\r\ninterface IFantomMarketplace {\r\n    function minters(address, uint256) external view returns (address);\r\n\r\n    function royalties(address, uint256) external view returns (uint16);\r\n\r\n    function collectionRoyalties(address)\r\n        external\r\n        view\r\n        returns (\r\n            uint16,\r\n            address,\r\n            address\r\n        );\r\n\r\n    function getPrice(address) external view returns (int256);\r\n}\r\n\r\ninterface IFantomBundleMarketplace {\r\n    function validateItemSold(\r\n        address,\r\n        uint256,\r\n        uint256\r\n    ) external;\r\n}\r\n\r\ninterface IFantomTokenRegistry {\r\n    function enabled(address) external returns (bool);\r\n}\r\n\r\n/**\r\n * @notice Secondary sale auction contract for NFTs\r\n */\r\ncontract FantomAuction is OwnableUpgradeable, ReentrancyGuardUpgradeable {\r\n    using SafeMath for uint256;\r\n    using AddressUpgradeable for address payable;\r\n    using SafeERC20 for IERC20;\r\n\r\n    /// @notice Event emitted only on construction. To be used by indexers\r\n    event FantomAuctionContractDeployed();\r\n\r\n    event PauseToggled(bool isPaused);\r\n\r\n    event UpdateAuctionReservePrice(\r\n        address indexed nftAddress,\r\n        uint256 indexed tokenId,\r\n        address payToken,\r\n        uint256 reservePrice\r\n    );\r\n\r\n    event AuctionCreated(\r\n        address indexed nftAddress,\r\n        uint256 indexed tokenId,\r\n        address payToken\r\n    );\r\n\r\n    event UpdatePlatformFee(uint256 platformFee);\r\n\r\n    event UpdatePlatformFeeRecipient(address payable platformFeeRecipient);\r\n\r\n    event UpdateMinBidIncrement(uint256 minBidIncrement);\r\n\r\n    event UpdateBidWithdrawalLockTime(uint256 bidWithdrawalLockTime);\r\n\r\n    event BidPlaced(\r\n        address indexed nftAddress,\r\n        uint256 indexed tokenId,\r\n        address indexed bidder,\r\n        uint256 bid\r\n    );\r\n\r\n    event BidWithdrawn(\r\n        address indexed nftAddress,\r\n        uint256 indexed tokenId,\r\n        address indexed bidder,\r\n        uint256 bid\r\n    );\r\n\r\n    event BidRefunded(\r\n        address indexed nftAddress,\r\n        uint256 indexed tokenId,\r\n        address indexed bidder,\r\n        uint256 bid\r\n    );\r\n\r\n    event AuctionResulted(\r\n        address oldOwner,\r\n        address indexed nftAddress,\r\n        uint256 indexed tokenId,\r\n        address indexed winner,\r\n        address payToken,\r\n        int256 unitPrice,\r\n        uint256 winningBid\r\n    );\r\n\r\n    event AuctionCancelled(address indexed nftAddress, uint256 indexed tokenId);\r\n\r\n    /// @notice Parameters of an auction\r\n    struct Auction {\r\n        address owner;\r\n        address payToken;\r\n        uint256 minBid;\r\n        uint256 reservePrice;\r\n        uint256 startTime;\r\n        uint256 endTime;\r\n        bool resulted;\r\n    }\r\n\r\n    /// @notice Information about the sender that placed a bit on an auction\r\n    struct HighestBid {\r\n        address payable bidder;\r\n        uint256 bid;\r\n        uint256 lastBidTime;\r\n    }\r\n\r\n    /// @notice ERC721 Address -> Token ID -> Auction Parameters\r\n    mapping(address => mapping(uint256 => Auction)) public auctions;\r\n\r\n    /// @notice ERC721 Address -> Token ID -> highest bidder info (if a bid has been received)\r\n    mapping(address => mapping(uint256 => HighestBid)) public highestBids;\r\n\r\n    /// @notice globally and across all auctions, the amount by which a bid has to increase\r\n    uint256 public minBidIncrement = 1;\r\n\r\n    /// @notice global bid withdrawal lock time\r\n    uint256 public bidWithdrawalLockTime = 20 minutes;\r\n\r\n    /// @notice global platform fee, assumed to always be to 1 decimal place i.e. 25 = 2.5%\r\n    uint256 public platformFee = 25;\r\n\r\n    /// @notice Used to track and set the maximum allowed auction time (_startTimestamp + maxAuctionLength)\r\n    uint256 public constant maxAuctionLength = 30 days;\r\n\r\n    /// @notice where to send platform fee funds to\r\n    address payable public platformFeeRecipient;\r\n\r\n    /// @notice Address registry\r\n    IFantomAddressRegistry public addressRegistry;\r\n\r\n    /// @notice for switching off auction creations, bids and withdrawals\r\n    bool public isPaused;\r\n\r\n    modifier whenNotPaused() {\r\n        require(!isPaused, \"contract paused\");\r\n        _;\r\n    }\r\n\r\n    modifier onlyMarketplace() {\r\n        require(\r\n            addressRegistry.marketplace() == _msgSender() ||\r\n                addressRegistry.bundleMarketplace() == _msgSender(),\r\n            \"not marketplace contract\"\r\n        );\r\n        _;\r\n    }\r\n\r\n    modifier onlyNotContract() {\r\n        require(_msgSender() == tx.origin);\r\n        _;\r\n    }\r\n\r\n    /// @notice Contract initializer\r\n    function initialize(address payable _platformFeeRecipient)\r\n        public\r\n        initializer\r\n    {\r\n        require(\r\n            _platformFeeRecipient != address(0),\r\n            \"FantomAuction: Invalid Platform Fee Recipient\"\r\n        );\r\n\r\n        platformFeeRecipient = _platformFeeRecipient;\r\n        emit FantomAuctionContractDeployed();\r\n\r\n        __Ownable_init();\r\n        __ReentrancyGuard_init();\r\n    }\r\n\r\n    /**\r\n     @notice Creates a new auction for a given item\r\n     @dev Only the owner of item can create an auction and must have approved the contract\r\n     @dev In addition to owning the item, the sender also has to have the MINTER role.\r\n     @dev End time for the auction must be in the future.\r\n     @param _nftAddress ERC 721 Address\r\n     @param _tokenId Token ID of the item being auctioned\r\n     @param _payToken Paying token\r\n     @param _reservePrice Item cannot be sold for less than this or minBidIncrement, whichever is higher\r\n     @param _startTimestamp Unix epoch in seconds for the auction start time\r\n     @param _endTimestamp Unix epoch in seconds for the auction end time.\r\n     */\r\n    function createAuction(\r\n        address _nftAddress,\r\n        uint256 _tokenId,\r\n        address _payToken,\r\n        uint256 _reservePrice,\r\n        uint256 _startTimestamp,\r\n        bool minBidReserve,\r\n        uint256 _endTimestamp\r\n    ) external whenNotPaused {\r\n        // Ensure this contract is approved to move the token\r\n        require(\r\n            IERC721(_nftAddress).ownerOf(_tokenId) == _msgSender() &&\r\n                IERC721(_nftAddress).isApprovedForAll(\r\n                    _msgSender(),\r\n                    address(this)\r\n                ),\r\n            \"not owner and or contract not approved\"\r\n        );\r\n\r\n        require(\r\n            _payToken == address(0) ||\r\n                (addressRegistry.tokenRegistry() != address(0) &&\r\n                    IFantomTokenRegistry(addressRegistry.tokenRegistry())\r\n                        .enabled(_payToken)),\r\n            \"invalid pay token\"\r\n        );\r\n\r\n        // Adds hard limits to cap the maximum auction length\r\n        require(\r\n            _endTimestamp <= (_startTimestamp + maxAuctionLength),\r\n            \"Auction time exceeds maximum length\"\r\n        );\r\n\r\n        _createAuction(\r\n            _nftAddress,\r\n            _tokenId,\r\n            _payToken,\r\n            _reservePrice,\r\n            _startTimestamp,\r\n            minBidReserve,\r\n            _endTimestamp\r\n        );\r\n    }\r\n\r\n    /**\r\n     @notice Places a new bid, out bidding the existing bidder if found and criteria is reached\r\n     @dev Only callable when the auction is open\r\n     @dev Bids from smart contracts are prohibited to prevent griefing with always reverting receiver\r\n     @param _nftAddress ERC 721 Address\r\n     @param _tokenId Token ID of the item being auctioned\r\n     */\r\n    /* function placeBid(address _nftAddress, uint256 _tokenId)\r\n        external\r\n        payable\r\n        nonReentrant\r\n        whenNotPaused\r\n    {\r\n        require(_msgSender().isContract() == false, \"no contracts permitted\");\r\n\r\n        // Check the auction to see if this is a valid bid\r\n        Auction memory auction = auctions[_nftAddress][_tokenId];\r\n\r\n        // Ensure auction is in flight\r\n        require(\r\n            _getNow() >= auction.startTime && _getNow() <= auction.endTime,\r\n            \"bidding outside of the auction window\"\r\n        );\r\n        require(auction.payToken == address(0), \"invalid pay token\");\r\n\r\n        _placeBid(_nftAddress, _tokenId, msg.value);\r\n    }\r\n */\r\n    /**\r\n     @notice Places a new bid, out bidding the existing bidder if found and criteria is reached\r\n     @dev Only callable when the auction is open\r\n     @dev Bids from smart contracts are prohibited to prevent griefing with always reverting receiver\r\n     @param _nftAddress ERC 721 Address\r\n     @param _tokenId Token ID of the item being auctioned\r\n     @param _bidAmount Bid amount\r\n     */\r\n    function placeBid(\r\n        address _nftAddress,\r\n        uint256 _tokenId,\r\n        uint256 _bidAmount\r\n    ) external nonReentrant whenNotPaused onlyNotContract {\r\n        // Check the auction to see if this is a valid bid\r\n        Auction memory auction = auctions[_nftAddress][_tokenId];\r\n\r\n        // Ensure auction is in flight\r\n        require(\r\n            _getNow() >= auction.startTime && _getNow() <= auction.endTime,\r\n            \"bidding outside of the auction window\"\r\n        );\r\n        require(\r\n            auction.payToken != address(0),\r\n            \"ERC20 method used for FTM auction\"\r\n        );\r\n\r\n        _placeBid(_nftAddress, _tokenId, _bidAmount);\r\n    }\r\n\r\n    /**\r\n     @notice Internal method doing the heavy lifting of placing a bid on an existing auction\r\n     @param _nftAddress ERC 721 Address\r\n     @param _tokenId Token ID of the NFT being auctioned\r\n     @param _bidAmount Bid amount\r\n     */\r\n    function _placeBid(\r\n        address _nftAddress,\r\n        uint256 _tokenId,\r\n        uint256 _bidAmount\r\n    ) internal whenNotPaused {\r\n        Auction storage auction = auctions[_nftAddress][_tokenId];\r\n\r\n        if (auction.minBid == auction.reservePrice) {\r\n            require(\r\n                _bidAmount >= auction.reservePrice,\r\n                \"bid cannot be lower than reserve price\"\r\n            );\r\n        }\r\n\r\n        // Ensure bid adheres to outbid increment and threshold\r\n        HighestBid storage highestBid = highestBids[_nftAddress][_tokenId];\r\n        uint256 minBidRequired = highestBid.bid.add(minBidIncrement);\r\n\r\n        require(_bidAmount > minBidRequired, \"failed to outbid highest bidder\");\r\n\r\n        // Ensure this contract is the owner of the item\r\n        require(\r\n            IERC721(_nftAddress).ownerOf(_tokenId) == address(this),\r\n            \"address(this) must be the item owner\"\r\n        );\r\n\r\n        if (auction.payToken != address(0)) {\r\n            IERC20 payToken = IERC20(auction.payToken);\r\n            require(\r\n                payToken.transferFrom(_msgSender(), address(this), _bidAmount),\r\n                \"insufficient balance or not approved\"\r\n            );\r\n        }\r\n\r\n        // Refund existing top bidder if found\r\n        if (highestBid.bidder != address(0)) {\r\n            _refundHighestBidder(\r\n                _nftAddress,\r\n                _tokenId,\r\n                highestBid.bidder,\r\n                highestBid.bid\r\n            );\r\n        }\r\n\r\n        // assign top bidder and bid time\r\n        highestBid.bidder = payable(_msgSender());\r\n        highestBid.bid = _bidAmount;\r\n        highestBid.lastBidTime = _getNow();\r\n\r\n        emit BidPlaced(_nftAddress, _tokenId, _msgSender(), _bidAmount);\r\n    }\r\n\r\n    //////////\r\n    // Admin /\r\n    //////////\r\n\r\n    /**\r\n     @notice Closes a finished auction and rewards the highest bidder\r\n     @dev Only admin or smart contract\r\n     @dev Auction can only be resulted if there has been a bidder and reserve met.\r\n     @dev If there have been no bids, the auction needs to be cancelled instead using `cancelAuction()`\r\n     @param _nftAddress ERC 721 Address\r\n     @param _tokenId Token ID of the item being auctioned\r\n     */\r\n    function resultAuction(address _nftAddress, uint256 _tokenId)\r\n        external\r\n        nonReentrant\r\n    {\r\n        // Check the auction to see if it can be resulted\r\n        Auction storage auction = auctions[_nftAddress][_tokenId];\r\n\r\n        // Store auction owner\r\n        address seller = auction.owner;\r\n\r\n        // Ensure this contract is the owner of the item\r\n        require(\r\n            IERC721(_nftAddress).ownerOf(_tokenId) == address(this),\r\n            \"address(this) must be the item owner\"\r\n        );\r\n\r\n        // Check the auction real\r\n        require(auction.endTime > 0, \"no auction exists\");\r\n\r\n        // Check the auction has ended\r\n        require(_getNow() > auction.endTime, \"auction not ended\");\r\n\r\n        // Ensure auction not already resulted\r\n        require(!auction.resulted, \"auction already resulted\");\r\n\r\n        // Get info on who the highest bidder is\r\n        HighestBid storage highestBid = highestBids[_nftAddress][_tokenId];\r\n        address winner = highestBid.bidder;\r\n        uint256 winningBid = highestBid.bid;\r\n\r\n        // Ensure _msgSender() is either auction winner or seller\r\n        require(\r\n            _msgSender() == winner || _msgSender() == seller,\r\n            \"_msgSender() must be auction winner or seller\"\r\n        );\r\n\r\n        // Ensure there is a winner\r\n        require(winner != address(0), \"no open bids\");\r\n        require(\r\n            winningBid >= auction.reservePrice,\r\n            \"highest bid is below reservePrice\"\r\n        );\r\n\r\n        // Ensure this contract is approved to move the token\r\n        require(\r\n            IERC721(_nftAddress).isApprovedForAll(_msgSender(), address(this)),\r\n            \"auction not approved\"\r\n        );\r\n\r\n        // Result the auction\r\n        auction.resulted = true;\r\n\r\n        // Clean up the highest bid\r\n        delete highestBids[_nftAddress][_tokenId];\r\n\r\n        uint256 payAmount;\r\n\r\n        if (winningBid > auction.reservePrice) {\r\n            // Work out total above the reserve\r\n            uint256 aboveReservePrice = winningBid.sub(auction.reservePrice);\r\n\r\n            // Work out platform fee from above reserve amount\r\n            uint256 platformFeeAboveReserve = aboveReservePrice\r\n                .mul(platformFee)\r\n                .div(1000);\r\n\r\n            if (auction.payToken == address(0)) {\r\n                // Send platform fee\r\n                (bool platformTransferSuccess, ) = platformFeeRecipient.call{\r\n                    value: platformFeeAboveReserve\r\n                }(\"\");\r\n                require(platformTransferSuccess, \"failed to send platform fee\");\r\n            } else {\r\n                IERC20 payToken = IERC20(auction.payToken);\r\n                require(\r\n                    payToken.transfer(\r\n                        platformFeeRecipient,\r\n                        platformFeeAboveReserve\r\n                    ),\r\n                    \"failed to send platform fee\"\r\n                );\r\n            }\r\n\r\n            // Send remaining to designer\r\n            payAmount = winningBid.sub(platformFeeAboveReserve);\r\n        } else {\r\n            payAmount = winningBid;\r\n        }\r\n\r\n        IFantomMarketplace marketplace = IFantomMarketplace(\r\n            addressRegistry.marketplace()\r\n        );\r\n        address minter = marketplace.minters(_nftAddress, _tokenId);\r\n        uint16 royalty = marketplace.royalties(_nftAddress, _tokenId);\r\n        if (minter != address(0) && royalty != 0) {\r\n            uint256 royaltyFee = payAmount.mul(royalty).div(10000);\r\n            if (auction.payToken == address(0)) {\r\n                (bool royaltyTransferSuccess, ) = payable(minter).call{\r\n                    value: royaltyFee\r\n                }(\"\");\r\n                require(\r\n                    royaltyTransferSuccess,\r\n                    \"failed to send the owner their royalties\"\r\n                );\r\n            } else {\r\n                IERC20 payToken = IERC20(auction.payToken);\r\n                require(\r\n                    payToken.transfer(minter, royaltyFee),\r\n                    \"failed to send the owner their royalties\"\r\n                );\r\n            }\r\n            payAmount = payAmount.sub(royaltyFee);\r\n        } else {\r\n            (royalty, , minter) = marketplace.collectionRoyalties(_nftAddress);\r\n            if (minter != address(0) && royalty != 0) {\r\n                uint256 royaltyFee = payAmount.mul(royalty).div(10000);\r\n                if (auction.payToken == address(0)) {\r\n                    (bool royaltyTransferSuccess, ) = payable(minter).call{\r\n                        value: royaltyFee\r\n                    }(\"\");\r\n                    require(\r\n                        royaltyTransferSuccess,\r\n                        \"failed to send the royalties\"\r\n                    );\r\n                } else {\r\n                    IERC20 payToken = IERC20(auction.payToken);\r\n                    require(\r\n                        payToken.transfer(minter, royaltyFee),\r\n                        \"failed to send the royalties\"\r\n                    );\r\n                }\r\n                payAmount = payAmount.sub(royaltyFee);\r\n            }\r\n        }\r\n        if (payAmount > 0) {\r\n            if (auction.payToken == address(0)) {\r\n                (bool ownerTransferSuccess, ) = auction.owner.call{\r\n                    value: payAmount\r\n                }(\"\");\r\n                require(\r\n                    ownerTransferSuccess,\r\n                    \"failed to send the owner the auction balance\"\r\n                );\r\n            } else {\r\n                IERC20 payToken = IERC20(auction.payToken);\r\n                require(\r\n                    payToken.transfer(auction.owner, payAmount),\r\n                    \"failed to send the owner the auction balance\"\r\n                );\r\n            }\r\n        }\r\n\r\n        // Transfer the token to the winner\r\n        IERC721(_nftAddress).safeTransferFrom(\r\n            IERC721(_nftAddress).ownerOf(_tokenId),\r\n            winner,\r\n            _tokenId\r\n        );\r\n\r\n        IFantomBundleMarketplace(addressRegistry.bundleMarketplace())\r\n            .validateItemSold(_nftAddress, _tokenId, uint256(1));\r\n\r\n        int256 price = IFantomMarketplace(addressRegistry.marketplace())\r\n            .getPrice(auction.payToken);\r\n\r\n        emit AuctionResulted(\r\n            _msgSender(),\r\n            _nftAddress,\r\n            _tokenId,\r\n            winner,\r\n            auction.payToken,\r\n            price,\r\n            winningBid\r\n        );\r\n\r\n        // Remove auction\r\n        delete auctions[_nftAddress][_tokenId];\r\n    }\r\n\r\n    /**\r\n     @notice Results an auction that failed to meet the auction.reservePrice\r\n     @dev Only admin or smart contract\r\n     @dev Auction can only be fail-resulted if the auction has expired and the auction.reservePrice has not been met\r\n     @dev If there have been no bids, the auction needs to be cancelled instead using `cancelAuction()`\r\n     @param _nftAddress ERC 721 Address\r\n     @param _tokenId Token ID of the item being auctioned\r\n     */\r\n    function resultFailedAuction(address _nftAddress, uint256 _tokenId)\r\n        external\r\n        nonReentrant\r\n    {\r\n        // Check the auction to see if it can be resulted\r\n        Auction storage auction = auctions[_nftAddress][_tokenId];\r\n\r\n        // Store auction owner\r\n        address seller = auction.owner;\r\n\r\n        // Ensure this contract is the owner of the item\r\n        require(\r\n            IERC721(_nftAddress).ownerOf(_tokenId) == address(this),\r\n            \"address(this) must be the item owner\"\r\n        );\r\n\r\n        // Check if the auction exists\r\n        require(auction.endTime > 0, \"no auction exists\");\r\n\r\n        // Check if the auction has ended\r\n        require(_getNow() > auction.endTime, \"auction not ended\");\r\n\r\n        // Ensure auction not already resulted\r\n        require(!auction.resulted, \"auction already resulted\");\r\n\r\n        // Get info on who the highest bidder is\r\n        HighestBid storage highestBid = highestBids[_nftAddress][_tokenId];\r\n        address payable topBidder = highestBid.bidder;\r\n        uint256 topBid = highestBid.bid;\r\n\r\n        // Ensure _msgSender() is either auction topBidder or seller\r\n        require(\r\n            _msgSender() == topBidder || _msgSender() == seller,\r\n            \"_msgSender() must be auction topBidder or seller\"\r\n        );\r\n\r\n        // Ensure the topBid is less than the auction.reservePrice\r\n        require(topBidder != address(0), \"no open bids\");\r\n        require(\r\n            topBid < auction.reservePrice,\r\n            \"highest bid is >= reservePrice\"\r\n        );\r\n\r\n        // Refund existing topBidder\r\n        if (topBidder != address(0)) {\r\n            _refundHighestBidder(_nftAddress, _tokenId, topBidder, topBid);\r\n\r\n            // Clear up highest bid\r\n            delete highestBids[_nftAddress][_tokenId];\r\n        }\r\n\r\n        // Remove auction and top bidder\r\n        delete auctions[_nftAddress][_tokenId];\r\n\r\n        // Transfer the item back to auctions.owner\r\n        IERC721(_nftAddress).safeTransferFrom(\r\n            IERC721(_nftAddress).ownerOf(_tokenId),\r\n            seller,\r\n            _tokenId\r\n        );\r\n\r\n        emit AuctionCancelled(_nftAddress, _tokenId);\r\n    }\r\n\r\n    /**\r\n     @notice Cancels and inflight and un-resulted auctions, returning the funds to the top bidder if found\r\n     @dev Only item owner\r\n     @param _nftAddress ERC 721 Address\r\n     @param _tokenId Token ID of the NFT being auctioned\r\n     */\r\n    function cancelAuction(address _nftAddress, uint256 _tokenId)\r\n        external\r\n        nonReentrant\r\n    {\r\n        // Check valid and not resulted\r\n        Auction memory auction = auctions[_nftAddress][_tokenId];\r\n\r\n        require(\r\n            IERC721(_nftAddress).ownerOf(_tokenId) == address(this) &&\r\n                _msgSender() == auction.owner,\r\n            \"sender must be owner\"\r\n        );\r\n\r\n        // Check auction is real\r\n        require(auction.endTime > 0, \"no auction exists\");\r\n\r\n        // Check auction not already resulted\r\n        require(!auction.resulted, \"auction already resulted\");\r\n\r\n        // Gets info on auction and ensures highest bid is less than the reserve price\r\n        HighestBid storage highestBid = highestBids[_nftAddress][_tokenId];\r\n        require(\r\n            highestBid.bid < auction.reservePrice,\r\n            \"Highest bid is currently above reserve price\"\r\n        );\r\n\r\n        _cancelAuction(_nftAddress, _tokenId);\r\n    }\r\n\r\n    /**\r\n     @notice Toggling the pause flag\r\n     @dev Only admin\r\n     */\r\n    function toggleIsPaused() external onlyOwner {\r\n        isPaused = !isPaused;\r\n        emit PauseToggled(isPaused);\r\n    }\r\n\r\n    /**\r\n     @notice Update the amount by which bids have to increase, across all auctions\r\n     @dev Only admin\r\n     @param _minBidIncrement New bid step in WEI\r\n     */\r\n    function updateMinBidIncrement(uint256 _minBidIncrement)\r\n        external\r\n        onlyOwner\r\n    {\r\n        minBidIncrement = _minBidIncrement;\r\n        emit UpdateMinBidIncrement(_minBidIncrement);\r\n    }\r\n\r\n    /**\r\n     @notice Update the current reserve price for an auction\r\n     @dev Only admin\r\n     @dev Auction must exist\r\n     @dev Reserve price can only be decreased and never increased\r\n     @param _nftAddress ERC 721 Address\r\n     @param _tokenId Token ID of the NFT being auctioned\r\n     @param _reservePrice New Ether reserve price (WEI value)\r\n     */\r\n    function updateAuctionReservePrice(\r\n        address _nftAddress,\r\n        uint256 _tokenId,\r\n        uint256 _reservePrice\r\n    ) external {\r\n        Auction storage auction = auctions[_nftAddress][_tokenId];\r\n        // Store the current reservePrice\r\n        uint256 currentReserve = auction.reservePrice;\r\n\r\n        // Ensures the sender owns the auction and the item is currently in escrow\r\n        require(\r\n            IERC721(_nftAddress).ownerOf(_tokenId) == address(this) &&\r\n                _msgSender() == auction.owner,\r\n            \"Sender must be item owner and NFT must be in escrow\"\r\n        );\r\n\r\n        // Ensures the auction hasn't been resulted\r\n        require(!auction.resulted, \"Auction already resulted\");\r\n\r\n        // Ensures auction exists\r\n        require(auction.endTime > 0, \"No auction exists\");\r\n\r\n        // Ensures the reserve price can only be decreased and never increased\r\n        require(\r\n            _reservePrice < currentReserve,\r\n            \"Reserve price can only be decreased\"\r\n        );\r\n\r\n        auction.reservePrice = _reservePrice;\r\n        emit UpdateAuctionReservePrice(\r\n            _nftAddress,\r\n            _tokenId,\r\n            auction.payToken,\r\n            _reservePrice\r\n        );\r\n    }\r\n\r\n    /**\r\n     @notice Update the global bid withdrawal lockout time\r\n     @dev Only admin\r\n     @param _bidWithdrawalLockTime New bid withdrawal lock time\r\n     */\r\n    function updateBidWithdrawalLockTime(uint256 _bidWithdrawalLockTime)\r\n        external\r\n        onlyOwner\r\n    {\r\n        bidWithdrawalLockTime = _bidWithdrawalLockTime;\r\n        emit UpdateBidWithdrawalLockTime(_bidWithdrawalLockTime);\r\n    }\r\n\r\n    /**\r\n     @notice Method for updating platform fee\r\n     @dev Only admin\r\n     @param _platformFee uint256 the platform fee to set\r\n     */\r\n    function updatePlatformFee(uint256 _platformFee) external onlyOwner {\r\n        platformFee = _platformFee;\r\n        emit UpdatePlatformFee(_platformFee);\r\n    }\r\n\r\n    /**\r\n     @notice Method for updating platform fee address\r\n     @dev Only admin\r\n     @param _platformFeeRecipient payable address the address to sends the funds to\r\n     */\r\n    function updatePlatformFeeRecipient(address payable _platformFeeRecipient)\r\n        external\r\n        onlyOwner\r\n    {\r\n        require(_platformFeeRecipient != address(0), \"zero address\");\r\n\r\n        platformFeeRecipient = _platformFeeRecipient;\r\n        emit UpdatePlatformFeeRecipient(_platformFeeRecipient);\r\n    }\r\n\r\n    /**\r\n     @notice Update FantomAddressRegistry contract\r\n     @dev Only admin\r\n     */\r\n    function updateAddressRegistry(address _registry) external onlyOwner {\r\n        addressRegistry = IFantomAddressRegistry(_registry);\r\n    }\r\n\r\n    ///////////////\r\n    // Accessors //\r\n    ///////////////\r\n\r\n    /**\r\n     @notice Method for getting all info about the auction\r\n     @param _nftAddress ERC 721 Address\r\n     @param _tokenId Token ID of the NFT being auctioned\r\n     */\r\n    function getAuction(address _nftAddress, uint256 _tokenId)\r\n        external\r\n        view\r\n        returns (\r\n            address _owner,\r\n            address _payToken,\r\n            uint256 _reservePrice,\r\n            uint256 _startTime,\r\n            uint256 _endTime,\r\n            bool _resulted,\r\n            uint256 minBid\r\n        )\r\n    {\r\n        Auction storage auction = auctions[_nftAddress][_tokenId];\r\n        return (\r\n            auction.owner,\r\n            auction.payToken,\r\n            auction.reservePrice,\r\n            auction.startTime,\r\n            auction.endTime,\r\n            auction.resulted,\r\n            auction.minBid\r\n        );\r\n    }\r\n\r\n    /**\r\n     @notice Method for getting all info about the highest bidder\r\n     @param _tokenId Token ID of the NFT being auctioned\r\n     */\r\n    function getHighestBidder(address _nftAddress, uint256 _tokenId)\r\n        external\r\n        view\r\n        returns (\r\n            address payable _bidder,\r\n            uint256 _bid,\r\n            uint256 _lastBidTime\r\n        )\r\n    {\r\n        HighestBid storage highestBid = highestBids[_nftAddress][_tokenId];\r\n        return (highestBid.bidder, highestBid.bid, highestBid.lastBidTime);\r\n    }\r\n\r\n    /////////////////////////\r\n    // Internal and Private /\r\n    /////////////////////////\r\n\r\n    function _getNow() internal view virtual returns (uint256) {\r\n        return block.timestamp;\r\n    }\r\n\r\n    /**\r\n     @notice Private method doing the heavy lifting of creating an auction\r\n     @param _nftAddress ERC 721 Address\r\n     @param _tokenId Token ID of the NFT being auctioned\r\n     @param _payToken Paying token\r\n     @param _reservePrice Item cannot be sold for less than this or minBidIncrement, whichever is higher\r\n     @param _startTimestamp Unix epoch in seconds for the auction start time\r\n     @param _endTimestamp Unix epoch in seconds for the auction end time.\r\n     */\r\n    function _createAuction(\r\n        address _nftAddress,\r\n        uint256 _tokenId,\r\n        address _payToken,\r\n        uint256 _reservePrice,\r\n        uint256 _startTimestamp,\r\n        bool minBidReserve,\r\n        uint256 _endTimestamp\r\n    ) private {\r\n        // Ensure a token cannot be re-listed if previously successfully sold\r\n        require(\r\n            auctions[_nftAddress][_tokenId].endTime == 0,\r\n            \"auction already started\"\r\n        );\r\n\r\n        // Check end time not before start time and that end is in the future\r\n        require(\r\n            _endTimestamp >= _startTimestamp + 300,\r\n            \"end time must be greater than start (by 5 minutes)\"\r\n        );\r\n\r\n        require(_startTimestamp > _getNow(), \"invalid start time\");\r\n        \r\n        // Transfer the NFT to the Artion contract to be held in escrow\r\n        IERC721(_nftAddress).safeTransferFrom(\r\n            IERC721(_nftAddress).ownerOf(_tokenId),\r\n            address(this),\r\n            _tokenId\r\n        );\r\n\r\n        uint256 minimumBid = 0;\r\n\r\n        if (minBidReserve) {\r\n            minimumBid = _reservePrice;\r\n        }\r\n\r\n        // Setup the auction\r\n        auctions[_nftAddress][_tokenId] = Auction({\r\n            owner: _msgSender(),\r\n            payToken: _payToken,\r\n            minBid: minimumBid,\r\n            reservePrice: _reservePrice,\r\n            startTime: _startTimestamp,\r\n            endTime: _endTimestamp,\r\n            resulted: false\r\n        });\r\n\r\n        emit AuctionCreated(_nftAddress, _tokenId, _payToken);\r\n    }\r\n\r\n    function _cancelAuction(address _nftAddress, uint256 _tokenId) private {\r\n        // refund existing top bidder if found\r\n        HighestBid storage highestBid = highestBids[_nftAddress][_tokenId];\r\n        if (highestBid.bidder != address(0)) {\r\n            _refundHighestBidder(\r\n                _nftAddress,\r\n                _tokenId,\r\n                highestBid.bidder,\r\n                highestBid.bid\r\n            );\r\n\r\n            // Clear up highest bid\r\n            delete highestBids[_nftAddress][_tokenId];\r\n        }\r\n\r\n        // Remove auction and top bidder\r\n        delete auctions[_nftAddress][_tokenId];\r\n\r\n        // Transfer the NFT ownership back to _msgSender()\r\n        IERC721(_nftAddress).safeTransferFrom(\r\n            IERC721(_nftAddress).ownerOf(_tokenId),\r\n            _msgSender(),\r\n            _tokenId\r\n        );\r\n\r\n        emit AuctionCancelled(_nftAddress, _tokenId);\r\n    }\r\n\r\n    /**\r\n     @notice Used for sending back escrowed funds from a previous bid\r\n     @param _currentHighestBidder Address of the last highest bidder\r\n     @param _currentHighestBid Ether or Mona amount in WEI that the bidder sent when placing their bid\r\n     */\r\n    function _refundHighestBidder(\r\n        address _nftAddress,\r\n        uint256 _tokenId,\r\n        address payable _currentHighestBidder,\r\n        uint256 _currentHighestBid\r\n    ) private {\r\n        Auction memory auction = auctions[_nftAddress][_tokenId];\r\n        if (auction.payToken == address(0)) {\r\n            // refund previous best (if bid exists)\r\n            (bool successRefund, ) = _currentHighestBidder.call{\r\n                value: _currentHighestBid\r\n            }(\"\");\r\n            require(successRefund, \"failed to refund previous bidder\");\r\n        } else {\r\n            IERC20 payToken = IERC20(auction.payToken);\r\n            require(\r\n                payToken.transfer(_currentHighestBidder, _currentHighestBid),\r\n                \"failed to refund previous bidder\"\r\n            );\r\n        }\r\n        emit BidRefunded(\r\n            _nftAddress,\r\n            _tokenId,\r\n            _currentHighestBidder,\r\n            _currentHighestBid\r\n        );\r\n    }\r\n\r\n    /**\r\n     * @notice Reclaims ERC20 Compatible tokens for entire balance\r\n     * @dev Only access controls admin\r\n     * @param _tokenContract The address of the token contract\r\n     */\r\n    function reclaimERC20(address _tokenContract) external onlyOwner {\r\n        require(_tokenContract != address(0), \"Invalid address\");\r\n        IERC20 token = IERC20(_tokenContract);\r\n        uint256 balance = token.balanceOf(address(this));\r\n        require(token.transfer(_msgSender(), balance), \"Transfer failed\");\r\n    }\r\n}\r\n",
  "sourcePath": "C:\\Users\\k\\Desktop\\fantomauction-unit-test-take-1\\contracts\\FantomAuction.sol",
  "compiler": {
    "name": "solc",
    "version": "0.8.7+commit.e28d00a7.Emscripten.clang"
  },
  "schemaVersion": "3.4.3",
  "updatedAt": "2021-10-16T07:14:53.299Z",
  "devdoc": {
    "kind": "dev",
    "methods": {
      "cancelAuction(address,uint256)": {
        "details": "Only item owner",
        "params": {
          "_nftAddress": "ERC 721 Address",
          "_tokenId": "Token ID of the NFT being auctioned"
        }
      },
      "createAuction(address,uint256,address,uint256,uint256,bool,uint256)": {
        "details": "Only the owner of item can create an auction and must have approved the contractIn addition to owning the item, the sender also has to have the MINTER role.End time for the auction must be in the future.",
        "params": {
          "_endTimestamp": "Unix epoch in seconds for the auction end time.",
          "_nftAddress": "ERC 721 Address",
          "_payToken": "Paying token",
          "_reservePrice": "Item cannot be sold for less than this or minBidIncrement, whichever is higher",
          "_startTimestamp": "Unix epoch in seconds for the auction start time",
          "_tokenId": "Token ID of the item being auctioned"
        }
      },
      "getAuction(address,uint256)": {
        "params": {
          "_nftAddress": "ERC 721 Address",
          "_tokenId": "Token ID of the NFT being auctioned"
        }
      },
      "getHighestBidder(address,uint256)": {
        "params": {
          "_tokenId": "Token ID of the NFT being auctioned"
        }
      },
      "owner()": {
        "details": "Returns the address of the current owner."
      },
      "placeBid(address,uint256,uint256)": {
        "details": "Only callable when the auction is openBids from smart contracts are prohibited to prevent griefing with always reverting receiver",
        "params": {
          "_bidAmount": "Bid amount",
          "_nftAddress": "ERC 721 Address",
          "_tokenId": "Token ID of the item being auctioned"
        }
      },
      "reclaimERC20(address)": {
        "details": "Only access controls admin",
        "params": {
          "_tokenContract": "The address of the token contract"
        }
      },
      "renounceOwnership()": {
        "details": "Leaves the contract without owner. It will not be possible to call `onlyOwner` functions anymore. Can only be called by the current owner. NOTE: Renouncing ownership will leave the contract without an owner, thereby removing any functionality that is only available to the owner."
      },
      "resultAuction(address,uint256)": {
        "details": "Only admin or smart contractAuction can only be resulted if there has been a bidder and reserve met.If there have been no bids, the auction needs to be cancelled instead using `cancelAuction()`",
        "params": {
          "_nftAddress": "ERC 721 Address",
          "_tokenId": "Token ID of the item being auctioned"
        }
      },
      "resultFailedAuction(address,uint256)": {
        "details": "Only admin or smart contractAuction can only be fail-resulted if the auction has expired and the auction.reservePrice has not been metIf there have been no bids, the auction needs to be cancelled instead using `cancelAuction()`",
        "params": {
          "_nftAddress": "ERC 721 Address",
          "_tokenId": "Token ID of the item being auctioned"
        }
      },
      "toggleIsPaused()": {
        "details": "Only admin"
      },
      "transferOwnership(address)": {
        "details": "Transfers ownership of the contract to a new account (`newOwner`). Can only be called by the current owner."
      },
      "updateAddressRegistry(address)": {
        "details": "Only admin"
      },
      "updateAuctionReservePrice(address,uint256,uint256)": {
        "details": "Only adminAuction must existReserve price can only be decreased and never increased",
        "params": {
          "_nftAddress": "ERC 721 Address",
          "_reservePrice": "New Ether reserve price (WEI value)",
          "_tokenId": "Token ID of the NFT being auctioned"
        }
      },
      "updateBidWithdrawalLockTime(uint256)": {
        "details": "Only admin",
        "params": {
          "_bidWithdrawalLockTime": "New bid withdrawal lock time"
        }
      },
      "updateMinBidIncrement(uint256)": {
        "details": "Only admin",
        "params": {
          "_minBidIncrement": "New bid step in WEI"
        }
      },
      "updatePlatformFee(uint256)": {
        "details": "Only admin",
        "params": {
          "_platformFee": "uint256 the platform fee to set"
        }
      },
      "updatePlatformFeeRecipient(address)": {
        "details": "Only admin",
        "params": {
          "_platformFeeRecipient": "payable address the address to sends the funds to"
        }
      }
    },
    "version": 1
  },
  "userdoc": {
    "events": {
      "FantomAuctionContractDeployed()": {
        "notice": "Event emitted only on construction. To be used by indexers"
      }
    },
    "kind": "user",
    "methods": {
      "addressRegistry()": {
        "notice": "Address registry"
      },
      "auctions(address,uint256)": {
        "notice": "ERC721 Address -> Token ID -> Auction Parameters"
      },
      "bidWithdrawalLockTime()": {
        "notice": "global bid withdrawal lock time"
      },
      "cancelAuction(address,uint256)": {
        "notice": "Cancels and inflight and un-resulted auctions, returning the funds to the top bidder if found"
      },
      "createAuction(address,uint256,address,uint256,uint256,bool,uint256)": {
        "notice": "Creates a new auction for a given item"
      },
      "getAuction(address,uint256)": {
        "notice": "Method for getting all info about the auction"
      },
      "getHighestBidder(address,uint256)": {
        "notice": "Method for getting all info about the highest bidder"
      },
      "highestBids(address,uint256)": {
        "notice": "ERC721 Address -> Token ID -> highest bidder info (if a bid has been received)"
      },
      "initialize(address)": {
        "notice": "Contract initializer"
      },
      "isPaused()": {
        "notice": "for switching off auction creations, bids and withdrawals"
      },
      "maxAuctionLength()": {
        "notice": "Used to track and set the maximum allowed auction time (_startTimestamp + maxAuctionLength)"
      },
      "minBidIncrement()": {
        "notice": "globally and across all auctions, the amount by which a bid has to increase"
      },
      "placeBid(address,uint256,uint256)": {
        "notice": "Places a new bid, out bidding the existing bidder if found and criteria is reached"
      },
      "platformFee()": {
        "notice": "global platform fee, assumed to always be to 1 decimal place i.e. 25 = 2.5%"
      },
      "platformFeeRecipient()": {
        "notice": "where to send platform fee funds to"
      },
      "reclaimERC20(address)": {
        "notice": "Reclaims ERC20 Compatible tokens for entire balance"
      },
      "resultAuction(address,uint256)": {
        "notice": "Closes a finished auction and rewards the highest bidder"
      },
      "resultFailedAuction(address,uint256)": {
        "notice": "Results an auction that failed to meet the auction.reservePrice"
      },
      "toggleIsPaused()": {
        "notice": "Toggling the pause flag"
      },
      "updateAddressRegistry(address)": {
        "notice": "Update FantomAddressRegistry contract"
      },
      "updateAuctionReservePrice(address,uint256,uint256)": {
        "notice": "Update the current reserve price for an auction"
      },
      "updateBidWithdrawalLockTime(uint256)": {
        "notice": "Update the global bid withdrawal lockout time"
      },
      "updateMinBidIncrement(uint256)": {
        "notice": "Update the amount by which bids have to increase, across all auctions"
      },
      "updatePlatformFee(uint256)": {
        "notice": "Method for updating platform fee"
      },
      "updatePlatformFeeRecipient(address)": {
        "notice": "Method for updating platform fee address"
      }
    },
    "notice": "Secondary sale auction contract for NFTs",
    "version": 1
  }
}