{
  "contractName": "MockERC721",
  "abi": [
    {
      "inputs": [
        {
          "internalType": "string",
          "name": "_name",
          "type": "string"
        },
        {
          "internalType": "string",
          "name": "_symbol",
          "type": "string"
        }
      ],
      "stateMutability": "nonpayable",
      "type": "constructor"
    },
    {
      "anonymous": false,
      "inputs": [
        {
          "indexed": true,
          "internalType": "address",
          "name": "owner",
          "type": "address"
        },
        {
          "indexed": true,
          "internalType": "address",
          "name": "approved",
          "type": "address"
        },
        {
          "indexed": true,
          "internalType": "uint256",
          "name": "tokenId",
          "type": "uint256"
        }
      ],
      "name": "Approval",
      "type": "event"
    },
    {
      "anonymous": false,
      "inputs": [
        {
          "indexed": true,
          "internalType": "address",
          "name": "owner",
          "type": "address"
        },
        {
          "indexed": true,
          "internalType": "address",
          "name": "operator",
          "type": "address"
        },
        {
          "indexed": false,
          "internalType": "bool",
          "name": "approved",
          "type": "bool"
        }
      ],
      "name": "ApprovalForAll",
      "type": "event"
    },
    {
      "anonymous": false,
      "inputs": [
        {
          "indexed": true,
          "internalType": "address",
          "name": "from",
          "type": "address"
        },
        {
          "indexed": true,
          "internalType": "address",
          "name": "to",
          "type": "address"
        },
        {
          "indexed": true,
          "internalType": "uint256",
          "name": "tokenId",
          "type": "uint256"
        }
      ],
      "name": "Transfer",
      "type": "event"
    },
    {
      "inputs": [],
      "name": "_tokenId",
      "outputs": [
        {
          "internalType": "uint256",
          "name": "",
          "type": "uint256"
        }
      ],
      "stateMutability": "view",
      "type": "function"
    },
    {
      "inputs": [
        {
          "internalType": "address",
          "name": "to",
          "type": "address"
        },
        {
          "internalType": "uint256",
          "name": "tokenId",
          "type": "uint256"
        }
      ],
      "name": "approve",
      "outputs": [],
      "stateMutability": "nonpayable",
      "type": "function"
    },
    {
      "inputs": [
        {
          "internalType": "address",
          "name": "owner",
          "type": "address"
        }
      ],
      "name": "balanceOf",
      "outputs": [
        {
          "internalType": "uint256",
          "name": "",
          "type": "uint256"
        }
      ],
      "stateMutability": "view",
      "type": "function"
    },
    {
      "inputs": [
        {
          "internalType": "uint256",
          "name": "tokenId",
          "type": "uint256"
        }
      ],
      "name": "getApproved",
      "outputs": [
        {
          "internalType": "address",
          "name": "",
          "type": "address"
        }
      ],
      "stateMutability": "view",
      "type": "function"
    },
    {
      "inputs": [
        {
          "internalType": "address",
          "name": "owner",
          "type": "address"
        },
        {
          "internalType": "address",
          "name": "operator",
          "type": "address"
        }
      ],
      "name": "isApprovedForAll",
      "outputs": [
        {
          "internalType": "bool",
          "name": "",
          "type": "bool"
        }
      ],
      "stateMutability": "view",
      "type": "function"
    },
    {
      "inputs": [],
      "name": "name",
      "outputs": [
        {
          "internalType": "string",
          "name": "",
          "type": "string"
        }
      ],
      "stateMutability": "view",
      "type": "function"
    },
    {
      "inputs": [
        {
          "internalType": "uint256",
          "name": "tokenId",
          "type": "uint256"
        }
      ],
      "name": "ownerOf",
      "outputs": [
        {
          "internalType": "address",
          "name": "",
          "type": "address"
        }
      ],
      "stateMutability": "view",
      "type": "function"
    },
    {
      "inputs": [
        {
          "internalType": "address",
          "name": "from",
          "type": "address"
        },
        {
          "internalType": "address",
          "name": "to",
          "type": "address"
        },
        {
          "internalType": "uint256",
          "name": "tokenId",
          "type": "uint256"
        }
      ],
      "name": "safeTransferFrom",
      "outputs": [],
      "stateMutability": "nonpayable",
      "type": "function"
    },
    {
      "inputs": [
        {
          "internalType": "address",
          "name": "from",
          "type": "address"
        },
        {
          "internalType": "address",
          "name": "to",
          "type": "address"
        },
        {
          "internalType": "uint256",
          "name": "tokenId",
          "type": "uint256"
        },
        {
          "internalType": "bytes",
          "name": "_data",
          "type": "bytes"
        }
      ],
      "name": "safeTransferFrom",
      "outputs": [],
      "stateMutability": "nonpayable",
      "type": "function"
    },
    {
      "inputs": [
        {
          "internalType": "address",
          "name": "operator",
          "type": "address"
        },
        {
          "internalType": "bool",
          "name": "approved",
          "type": "bool"
        }
      ],
      "name": "setApprovalForAll",
      "outputs": [],
      "stateMutability": "nonpayable",
      "type": "function"
    },
    {
      "inputs": [
        {
          "internalType": "bytes4",
          "name": "interfaceId",
          "type": "bytes4"
        }
      ],
      "name": "supportsInterface",
      "outputs": [
        {
          "internalType": "bool",
          "name": "",
          "type": "bool"
        }
      ],
      "stateMutability": "view",
      "type": "function"
    },
    {
      "inputs": [],
      "name": "symbol",
      "outputs": [
        {
          "internalType": "string",
          "name": "",
          "type": "string"
        }
      ],
      "stateMutability": "view",
      "type": "function"
    },
    {
      "inputs": [
        {
          "internalType": "uint256",
          "name": "tokenId",
          "type": "uint256"
        }
      ],
      "name": "tokenURI",
      "outputs": [
        {
          "internalType": "string",
          "name": "",
          "type": "string"
        }
      ],
      "stateMutability": "view",
      "type": "function"
    },
    {
      "inputs": [
        {
          "internalType": "address",
          "name": "from",
          "type": "address"
        },
        {
          "internalType": "address",
          "name": "to",
          "type": "address"
        },
        {
          "internalType": "uint256",
          "name": "tokenId",
          "type": "uint256"
        }
      ],
      "name": "transferFrom",
      "outputs": [],
      "stateMutability": "nonpayable",
      "type": "function"
    },
    {
      "inputs": [
        {
          "internalType": "address",
          "name": "_to",
          "type": "address"
        }
      ],
      "name": "mint",
      "outputs": [],
      "stateMutability": "nonpayable",
      "type": "function"
    }
  ],
  "bytecode": "0x60806040523480156200001157600080fd5b5060405162002ac738038062002ac78339818101604052810190620000379190620001a3565b818181600090805190602001906200005192919062000075565b5080600190805190602001906200006a92919062000075565b5050505050620003ac565b8280546200008390620002bd565b90600052602060002090601f016020900481019282620000a75760008555620000f3565b82601f10620000c257805160ff1916838001178555620000f3565b82800160010185558215620000f3579182015b82811115620000f2578251825591602001919060010190620000d5565b5b50905062000102919062000106565b5090565b5b808211156200012157600081600090555060010162000107565b5090565b60006200013c620001368462000251565b62000228565b9050828152602081018484840111156200015b576200015a6200038c565b5b6200016884828562000287565b509392505050565b600082601f83011262000188576200018762000387565b5b81516200019a84826020860162000125565b91505092915050565b60008060408385031215620001bd57620001bc62000396565b5b600083015167ffffffffffffffff811115620001de57620001dd62000391565b5b620001ec8582860162000170565b925050602083015167ffffffffffffffff81111562000210576200020f62000391565b5b6200021e8582860162000170565b9150509250929050565b60006200023462000247565b9050620002428282620002f3565b919050565b6000604051905090565b600067ffffffffffffffff8211156200026f576200026e62000358565b5b6200027a826200039b565b9050602081019050919050565b60005b83811015620002a75780820151818401526020810190506200028a565b83811115620002b7576000848401525b50505050565b60006002820490506001821680620002d657607f821691505b60208210811415620002ed57620002ec62000329565b5b50919050565b620002fe826200039b565b810181811067ffffffffffffffff8211171562000320576200031f62000358565b5b80604052505050565b7f4e487b7100000000000000000000000000000000000000000000000000000000600052602260045260246000fd5b7f4e487b7100000000000000000000000000000000000000000000000000000000600052604160045260246000fd5b600080fd5b600080fd5b600080fd5b600080fd5b6000601f19601f8301169050919050565b61270b80620003bc6000396000f3fe608060405234801561001057600080fd5b50600436106100f55760003560e01c80636352211e11610097578063a22cb46511610066578063a22cb46514610284578063b88d4fde146102a0578063c87b56dd146102bc578063e985e9c5146102ec576100f5565b80636352211e146101ea5780636a6278421461021a57806370a082311461023657806395d89b4114610266576100f5565b8063095ea7b3116100d3578063095ea7b31461017857806323b872dd1461019457806324822514146101b057806342842e0e146101ce576100f5565b806301ffc9a7146100fa57806306fdde031461012a578063081812fc14610148575b600080fd5b610114600480360381019061010f91906118be565b61031c565b6040516101219190611c8a565b60405180910390f35b6101326103fe565b60405161013f9190611ca5565b60405180910390f35b610162600480360381019061015d9190611918565b610490565b60405161016f9190611c23565b60405180910390f35b610192600480360381019061018d919061187e565b610515565b005b6101ae60048036038101906101a99190611768565b61062d565b005b6101b861068d565b6040516101c59190611e87565b60405180910390f35b6101e860048036038101906101e39190611768565b610693565b005b61020460048036038101906101ff9190611918565b6106b3565b6040516102119190611c23565b60405180910390f35b610234600480360381019061022f91906116fb565b610765565b005b610250600480360381019061024b91906116fb565b610798565b60405161025d9190611e87565b60405180910390f35b61026e610850565b60405161027b9190611ca5565b60405180910390f35b61029e6004803603810190610299919061183e565b6108e2565b005b6102ba60048036038101906102b591906117bb565b610a63565b005b6102d660048036038101906102d19190611918565b610ac5565b6040516102e39190611ca5565b60405180910390f35b61030660048036038101906103019190611728565b610b6c565b6040516103139190611c8a565b60405180910390f35b60007f80ac58cd000000000000000000000000000000000000000000000000000000007bffffffffffffffffffffffffffffffffffffffffffffffffffffffff1916827bffffffffffffffffffffffffffffffffffffffffffffffffffffffff191614806103e757507f5b5e139f000000000000000000000000000000000000000000000000000000007bffffffffffffffffffffffffffffffffffffffffffffffffffffffff1916827bffffffffffffffffffffffffffffffffffffffffffffffffffffffff1916145b806103f757506103f682610c00565b5b9050919050565b60606000805461040d906120ac565b80601f0160208091040260200160405190810160405280929190818152602001828054610439906120ac565b80156104865780601f1061045b57610100808354040283529160200191610486565b820191906000526020600020905b81548152906001019060200180831161046957829003601f168201915b5050505050905090565b600061049b82610c6a565b6104da576040517f08c379a00000000000000000000000000000000000000000000000000000000081526004016104d190611de7565b60405180910390fd5b6004600083815260200190815260200160002060009054906101000a900473ffffffffffffffffffffffffffffffffffffffff169050919050565b6000610520826106b3565b90508073ffffffffffffffffffffffffffffffffffffffff168373ffffffffffffffffffffffffffffffffffffffff161415610591576040517f08c379a000000000000000000000000000000000000000000000000000000000815260040161058890611e47565b60405180910390fd5b8073ffffffffffffffffffffffffffffffffffffffff166105b0610cd6565b73ffffffffffffffffffffffffffffffffffffffff1614806105df57506105de816105d9610cd6565b610b6c565b5b61061e576040517f08c379a000000000000000000000000000000000000000000000000000000000815260040161061590611d67565b60405180910390fd5b6106288383610cde565b505050565b61063e610638610cd6565b82610d97565b61067d576040517f08c379a000000000000000000000000000000000000000000000000000000000815260040161067490611e67565b60405180910390fd5b610688838383610e75565b505050565b60065481565b6106ae83838360405180602001604052806000815250610a63565b505050565b6000806002600084815260200190815260200160002060009054906101000a900473ffffffffffffffffffffffffffffffffffffffff169050600073ffffffffffffffffffffffffffffffffffffffff168173ffffffffffffffffffffffffffffffffffffffff16141561075c576040517f08c379a000000000000000000000000000000000000000000000000000000000815260040161075390611da7565b60405180910390fd5b80915050919050565b610771816006546110d1565b61077c600654610ac5565b50600660008154809291906107909061210f565b919050555050565b60008073ffffffffffffffffffffffffffffffffffffffff168273ffffffffffffffffffffffffffffffffffffffff161415610809576040517f08c379a000000000000000000000000000000000000000000000000000000000815260040161080090611d87565b60405180910390fd5b600360008373ffffffffffffffffffffffffffffffffffffffff1673ffffffffffffffffffffffffffffffffffffffff168152602001908152602001600020549050919050565b60606001805461085f906120ac565b80601f016020809104026020016040519081016040528092919081815260200182805461088b906120ac565b80156108d85780601f106108ad576101008083540402835291602001916108d8565b820191906000526020600020905b8154815290600101906020018083116108bb57829003601f168201915b5050505050905090565b6108ea610cd6565b73ffffffffffffffffffffffffffffffffffffffff168273ffffffffffffffffffffffffffffffffffffffff161415610958576040517f08c379a000000000000000000000000000000000000000000000000000000000815260040161094f90611d27565b60405180910390fd5b8060056000610965610cd6565b73ffffffffffffffffffffffffffffffffffffffff1673ffffffffffffffffffffffffffffffffffffffff16815260200190815260200160002060008473ffffffffffffffffffffffffffffffffffffffff1673ffffffffffffffffffffffffffffffffffffffff16815260200190815260200160002060006101000a81548160ff0219169083151502179055508173ffffffffffffffffffffffffffffffffffffffff16610a12610cd6565b73ffffffffffffffffffffffffffffffffffffffff167f17307eab39ab6107e8899845ad3d59bd9653f200f220920489ca2b5937696c3183604051610a579190611c8a565b60405180910390a35050565b610a74610a6e610cd6565b83610d97565b610ab3576040517f08c379a0000000000000000000000000000000000000000000000000000000008152600401610aaa90611e67565b60405180910390fd5b610abf8484848461129f565b50505050565b6060610ad082610c6a565b610b0f576040517f08c379a0000000000000000000000000000000000000000000000000000000008152600401610b0690611e27565b60405180910390fd5b6000610b196112fb565b90506000815111610b395760405180602001604052806000815250610b64565b80610b4384611312565b604051602001610b54929190611bff565b6040516020818303038152906040525b915050919050565b6000600560008473ffffffffffffffffffffffffffffffffffffffff1673ffffffffffffffffffffffffffffffffffffffff16815260200190815260200160002060008373ffffffffffffffffffffffffffffffffffffffff1673ffffffffffffffffffffffffffffffffffffffff16815260200190815260200160002060009054906101000a900460ff16905092915050565b60007f01ffc9a7000000000000000000000000000000000000000000000000000000007bffffffffffffffffffffffffffffffffffffffffffffffffffffffff1916827bffffffffffffffffffffffffffffffffffffffffffffffffffffffff1916149050919050565b60008073ffffffffffffffffffffffffffffffffffffffff166002600084815260200190815260200160002060009054906101000a900473ffffffffffffffffffffffffffffffffffffffff1673ffffffffffffffffffffffffffffffffffffffff1614159050919050565b600033905090565b816004600083815260200190815260200160002060006101000a81548173ffffffffffffffffffffffffffffffffffffffff021916908373ffffffffffffffffffffffffffffffffffffffff160217905550808273ffffffffffffffffffffffffffffffffffffffff16610d51836106b3565b73ffffffffffffffffffffffffffffffffffffffff167f8c5be1e5ebec7d5bd14f71427d1e84f3dd0314c0f7b2291e5b200ac8c7c3b92560405160405180910390a45050565b6000610da282610c6a565b610de1576040517f08c379a0000000000000000000000000000000000000000000000000000000008152600401610dd890611d47565b60405180910390fd5b6000610dec836106b3565b90508073ffffffffffffffffffffffffffffffffffffffff168473ffffffffffffffffffffffffffffffffffffffff161480610e5b57508373ffffffffffffffffffffffffffffffffffffffff16610e4384610490565b73ffffffffffffffffffffffffffffffffffffffff16145b80610e6c5750610e6b8185610b6c565b5b91505092915050565b8273ffffffffffffffffffffffffffffffffffffffff16610e95826106b3565b73ffffffffffffffffffffffffffffffffffffffff1614610eeb576040517f08c379a0000000000000000000000000000000000000000000000000000000008152600401610ee290611e07565b60405180910390fd5b600073ffffffffffffffffffffffffffffffffffffffff168273ffffffffffffffffffffffffffffffffffffffff161415610f5b576040517f08c379a0000000000000000000000000000000000000000000000000000000008152600401610f5290611d07565b60405180910390fd5b610f66838383611473565b610f71600082610cde565b6001600360008573ffffffffffffffffffffffffffffffffffffffff1673ffffffffffffffffffffffffffffffffffffffff1681526020019081526020016000206000828254610fc19190611fc2565b925050819055506001600360008473ffffffffffffffffffffffffffffffffffffffff1673ffffffffffffffffffffffffffffffffffffffff16815260200190815260200160002060008282546110189190611f3b565b92505081905550816002600083815260200190815260200160002060006101000a81548173ffffffffffffffffffffffffffffffffffffffff021916908373ffffffffffffffffffffffffffffffffffffffff160217905550808273ffffffffffffffffffffffffffffffffffffffff168473ffffffffffffffffffffffffffffffffffffffff167fddf252ad1be2c89b69c2b068fc378daa952ba7f163c4a11628f55a4df523b3ef60405160405180910390a4505050565b600073ffffffffffffffffffffffffffffffffffffffff168273ffffffffffffffffffffffffffffffffffffffff161415611141576040517f08c379a000000000000000000000000000000000000000000000000000000000815260040161113890611dc7565b60405180910390fd5b61114a81610c6a565b1561118a576040517f08c379a000000000000000000000000000000000000000000000000000000000815260040161118190611ce7565b60405180910390fd5b61119660008383611473565b6001600360008473ffffffffffffffffffffffffffffffffffffffff1673ffffffffffffffffffffffffffffffffffffffff16815260200190815260200160002060008282546111e69190611f3b565b92505081905550816002600083815260200190815260200160002060006101000a81548173ffffffffffffffffffffffffffffffffffffffff021916908373ffffffffffffffffffffffffffffffffffffffff160217905550808273ffffffffffffffffffffffffffffffffffffffff16600073ffffffffffffffffffffffffffffffffffffffff167fddf252ad1be2c89b69c2b068fc378daa952ba7f163c4a11628f55a4df523b3ef60405160405180910390a45050565b6112aa848484610e75565b6112b684848484611478565b6112f5576040517f08c379a00000000000000000000000000000000000000000000000000000000081526004016112ec90611cc7565b60405180910390fd5b50505050565b606060405180602001604052806000815250905090565b6060600082141561135a576040518060400160405280600181526020017f3000000000000000000000000000000000000000000000000000000000000000815250905061146e565b600082905060005b6000821461138c5780806113759061210f565b915050600a826113859190611f91565b9150611362565b60008167ffffffffffffffff8111156113a8576113a7612245565b5b6040519080825280601f01601f1916602001820160405280156113da5781602001600182028036833780820191505090505b5090505b60008514611467576001826113f39190611fc2565b9150600a856114029190612158565b603061140e9190611f3b565b60f81b81838151811061142457611423612216565b5b60200101907effffffffffffffffffffffffffffffffffffffffffffffffffffffffffffff1916908160001a905350600a856114609190611f91565b94506113de565b8093505050505b919050565b505050565b60006114998473ffffffffffffffffffffffffffffffffffffffff1661160f565b15611602578373ffffffffffffffffffffffffffffffffffffffff1663150b7a026114c2610cd6565b8786866040518563ffffffff1660e01b81526004016114e49493929190611c3e565b602060405180830381600087803b1580156114fe57600080fd5b505af192505050801561152f57506040513d601f19601f8201168201806040525081019061152c91906118eb565b60015b6115b2573d806000811461155f576040519150601f19603f3d011682016040523d82523d6000602084013e611564565b606091505b506000815114156115aa576040517f08c379a00000000000000000000000000000000000000000000000000000000081526004016115a190611cc7565b60405180910390fd5b805181602001fd5b63150b7a0260e01b7bffffffffffffffffffffffffffffffffffffffffffffffffffffffff1916817bffffffffffffffffffffffffffffffffffffffffffffffffffffffff191614915050611607565b600190505b949350505050565b600080823b905060008111915050919050565b600061163561163084611ec7565b611ea2565b90508281526020810184848401111561165157611650612279565b5b61165c84828561206a565b509392505050565b60008135905061167381612679565b92915050565b60008135905061168881612690565b92915050565b60008135905061169d816126a7565b92915050565b6000815190506116b2816126a7565b92915050565b600082601f8301126116cd576116cc612274565b5b81356116dd848260208601611622565b91505092915050565b6000813590506116f5816126be565b92915050565b60006020828403121561171157611710612283565b5b600061171f84828501611664565b91505092915050565b6000806040838503121561173f5761173e612283565b5b600061174d85828601611664565b925050602061175e85828601611664565b9150509250929050565b60008060006060848603121561178157611780612283565b5b600061178f86828701611664565b93505060206117a086828701611664565b92505060406117b1868287016116e6565b9150509250925092565b600080600080608085870312156117d5576117d4612283565b5b60006117e387828801611664565b94505060206117f487828801611664565b9350506040611805878288016116e6565b925050606085013567ffffffffffffffff8111156118265761182561227e565b5b611832878288016116b8565b91505092959194509250565b6000806040838503121561185557611854612283565b5b600061186385828601611664565b925050602061187485828601611679565b9150509250929050565b6000806040838503121561189557611894612283565b5b60006118a385828601611664565b92505060206118b4858286016116e6565b9150509250929050565b6000602082840312156118d4576118d3612283565b5b60006118e28482850161168e565b91505092915050565b60006020828403121561190157611900612283565b5b600061190f848285016116a3565b91505092915050565b60006020828403121561192e5761192d612283565b5b600061193c848285016116e6565b91505092915050565b61194e81611ff6565b82525050565b61195d81612008565b82525050565b600061196e82611ef8565b6119788185611f0e565b9350611988818560208601612079565b61199181612288565b840191505092915050565b60006119a782611f03565b6119b18185611f1f565b93506119c1818560208601612079565b6119ca81612288565b840191505092915050565b60006119e082611f03565b6119ea8185611f30565b93506119fa818560208601612079565b80840191505092915050565b6000611a13603283611f1f565b9150611a1e82612299565b604082019050919050565b6000611a36601c83611f1f565b9150611a41826122e8565b602082019050919050565b6000611a59602483611f1f565b9150611a6482612311565b604082019050919050565b6000611a7c601983611f1f565b9150611a8782612360565b602082019050919050565b6000611a9f602c83611f1f565b9150611aaa82612389565b604082019050919050565b6000611ac2603883611f1f565b9150611acd826123d8565b604082019050919050565b6000611ae5602a83611f1f565b9150611af082612427565b604082019050919050565b6000611b08602983611f1f565b9150611b1382612476565b604082019050919050565b6000611b2b602083611f1f565b9150611b36826124c5565b602082019050919050565b6000611b4e602c83611f1f565b9150611b59826124ee565b604082019050919050565b6000611b71602983611f1f565b9150611b7c8261253d565b604082019050919050565b6000611b94602f83611f1f565b9150611b9f8261258c565b604082019050919050565b6000611bb7602183611f1f565b9150611bc2826125db565b604082019050919050565b6000611bda603183611f1f565b9150611be58261262a565b604082019050919050565b611bf981612060565b82525050565b6000611c0b82856119d5565b9150611c1782846119d5565b91508190509392505050565b6000602082019050611c386000830184611945565b92915050565b6000608082019050611c536000830187611945565b611c606020830186611945565b611c6d6040830185611bf0565b8181036060830152611c7f8184611963565b905095945050505050565b6000602082019050611c9f6000830184611954565b92915050565b60006020820190508181036000830152611cbf818461199c565b905092915050565b60006020820190508181036000830152611ce081611a06565b9050919050565b60006020820190508181036000830152611d0081611a29565b9050919050565b60006020820190508181036000830152611d2081611a4c565b9050919050565b60006020820190508181036000830152611d4081611a6f565b9050919050565b60006020820190508181036000830152611d6081611a92565b9050919050565b60006020820190508181036000830152611d8081611ab5565b9050919050565b60006020820190508181036000830152611da081611ad8565b9050919050565b60006020820190508181036000830152611dc081611afb565b9050919050565b60006020820190508181036000830152611de081611b1e565b9050919050565b60006020820190508181036000830152611e0081611b41565b9050919050565b60006020820190508181036000830152611e2081611b64565b9050919050565b60006020820190508181036000830152611e4081611b87565b9050919050565b60006020820190508181036000830152611e6081611baa565b9050919050565b60006020820190508181036000830152611e8081611bcd565b9050919050565b6000602082019050611e9c6000830184611bf0565b92915050565b6000611eac611ebd565b9050611eb882826120de565b919050565b6000604051905090565b600067ffffffffffffffff821115611ee257611ee1612245565b5b611eeb82612288565b9050602081019050919050565b600081519050919050565b600081519050919050565b600082825260208201905092915050565b600082825260208201905092915050565b600081905092915050565b6000611f4682612060565b9150611f5183612060565b9250827fffffffffffffffffffffffffffffffffffffffffffffffffffffffffffffffff03821115611f8657611f85612189565b5b828201905092915050565b6000611f9c82612060565b9150611fa783612060565b925082611fb757611fb66121b8565b5b828204905092915050565b6000611fcd82612060565b9150611fd883612060565b925082821015611feb57611fea612189565b5b828203905092915050565b600061200182612040565b9050919050565b60008115159050919050565b60007fffffffff0000000000000000000000000000000000000000000000000000000082169050919050565b600073ffffffffffffffffffffffffffffffffffffffff82169050919050565b6000819050919050565b82818337600083830152505050565b60005b8381101561209757808201518184015260208101905061207c565b838111156120a6576000848401525b50505050565b600060028204905060018216806120c457607f821691505b602082108114156120d8576120d76121e7565b5b50919050565b6120e782612288565b810181811067ffffffffffffffff8211171561210657612105612245565b5b80604052505050565b600061211a82612060565b91507fffffffffffffffffffffffffffffffffffffffffffffffffffffffffffffffff82141561214d5761214c612189565b5b600182019050919050565b600061216382612060565b915061216e83612060565b92508261217e5761217d6121b8565b5b828206905092915050565b7f4e487b7100000000000000000000000000000000000000000000000000000000600052601160045260246000fd5b7f4e487b7100000000000000000000000000000000000000000000000000000000600052601260045260246000fd5b7f4e487b7100000000000000000000000000000000000000000000000000000000600052602260045260246000fd5b7f4e487b7100000000000000000000000000000000000000000000000000000000600052603260045260246000fd5b7f4e487b7100000000000000000000000000000000000000000000000000000000600052604160045260246000fd5b600080fd5b600080fd5b600080fd5b600080fd5b6000601f19601f8301169050919050565b7f4552433732313a207472616e7366657220746f206e6f6e20455243373231526560008201527f63656976657220696d706c656d656e7465720000000000000000000000000000602082015250565b7f4552433732313a20746f6b656e20616c7265616479206d696e74656400000000600082015250565b7f4552433732313a207472616e7366657220746f20746865207a65726f2061646460008201527f7265737300000000000000000000000000000000000000000000000000000000602082015250565b7f4552433732313a20617070726f766520746f2063616c6c657200000000000000600082015250565b7f4552433732313a206f70657261746f7220717565727920666f72206e6f6e657860008201527f697374656e7420746f6b656e0000000000000000000000000000000000000000602082015250565b7f4552433732313a20617070726f76652063616c6c6572206973206e6f74206f7760008201527f6e6572206e6f7220617070726f76656420666f7220616c6c0000000000000000602082015250565b7f4552433732313a2062616c616e636520717565727920666f7220746865207a6560008201527f726f206164647265737300000000000000000000000000000000000000000000602082015250565b7f4552433732313a206f776e657220717565727920666f72206e6f6e657869737460008201527f656e7420746f6b656e0000000000000000000000000000000000000000000000602082015250565b7f4552433732313a206d696e7420746f20746865207a65726f2061646472657373600082015250565b7f4552433732313a20617070726f76656420717565727920666f72206e6f6e657860008201527f697374656e7420746f6b656e0000000000000000000000000000000000000000602082015250565b7f4552433732313a207472616e73666572206f6620746f6b656e2074686174206960008201527f73206e6f74206f776e0000000000000000000000000000000000000000000000602082015250565b7f4552433732314d657461646174613a2055524920717565727920666f72206e6f60008201527f6e6578697374656e7420746f6b656e0000000000000000000000000000000000602082015250565b7f4552433732313a20617070726f76616c20746f2063757272656e74206f776e6560008201527f7200000000000000000000000000000000000000000000000000000000000000602082015250565b7f4552433732313a207472616e736665722063616c6c6572206973206e6f74206f60008201527f776e6572206e6f7220617070726f766564000000000000000000000000000000602082015250565b61268281611ff6565b811461268d57600080fd5b50565b61269981612008565b81146126a457600080fd5b50565b6126b081612014565b81146126bb57600080fd5b50565b6126c781612060565b81146126d257600080fd5b5056fea2646970667358221220f2f1277266ecedd798237d55f1a1787b6b9552e60f3c61cbb43a6922817ddffa64736f6c63430008070033",
  "immutableReferences": {},
  "source": "// SPDX-License-Identifier: MIT\r\n\r\npragma solidity ^0.8.0;\r\n\r\nimport \"@openzeppelin/contracts/token/ERC721/ERC721.sol\";\r\n\r\ncontract MockERC721 is ERC721 {\r\n\r\n    constructor (string memory _name, string memory _symbol) public ERC721(_name, _symbol) {}\r\n\r\n    uint256 public _tokenId;\r\n\r\n    function mint(address _to) public {\r\n        super._mint(_to, _tokenId);\r\n        super.tokenURI(_tokenId);\r\n        _tokenId++;\r\n    }\r\n}\r\n",
  "sourcePath": "C:\\Users\\k\\Desktop\\fantomauction-unit-test-take-1\\contracts\\MockERC721.sol",
  "compiler": {
    "name": "solc",
    "version": "0.8.7+commit.e28d00a7.Emscripten.clang"
  },
  "schemaVersion": "3.4.3",
  "updatedAt": "2021-10-16T07:14:53.519Z",
  "devdoc": {
    "kind": "dev",
    "methods": {
      "approve(address,uint256)": {
        "details": "See {IERC721-approve}."
      },
      "balanceOf(address)": {
        "details": "See {IERC721-balanceOf}."
      },
      "getApproved(uint256)": {
        "details": "See {IERC721-getApproved}."
      },
      "isApprovedForAll(address,address)": {
        "details": "See {IERC721-isApprovedForAll}."
      },
      "name()": {
        "details": "See {IERC721Metadata-name}."
      },
      "ownerOf(uint256)": {
        "details": "See {IERC721-ownerOf}."
      },
      "safeTransferFrom(address,address,uint256)": {
        "details": "See {IERC721-safeTransferFrom}."
      },
      "safeTransferFrom(address,address,uint256,bytes)": {
        "details": "See {IERC721-safeTransferFrom}."
      },
      "setApprovalForAll(address,bool)": {
        "details": "See {IERC721-setApprovalForAll}."
      },
      "supportsInterface(bytes4)": {
        "details": "See {IERC165-supportsInterface}."
      },
      "symbol()": {
        "details": "See {IERC721Metadata-symbol}."
      },
      "tokenURI(uint256)": {
        "details": "See {IERC721Metadata-tokenURI}."
      },
      "transferFrom(address,address,uint256)": {
        "details": "See {IERC721-transferFrom}."
      }
    },
    "version": 1
  },
  "userdoc": {
    "kind": "user",
    "methods": {},
    "version": 1
  }
}